:020000040800F2
:10000000A80A0024AD020008B73D0008231D00081F
:10001000B33D00085D0500087D42000800000000B7
:10002000000000000000000000000000BB3D0008D0
:100030006105000800000000B93D0008BD3D000852
:10004000C7020008C7020008C7020008C70200086C
:10005000C7020008C7020008C7020008C70200085C
:10006000C7020008C7020008C7020008C70200084C
:10007000C7020008C7020008C7020008C70200083C
:10008000C7020008C7020008C7020008C70200082C
:10009000C7020008C7020008C7020008C70200081C
:1000A000C7020008C7020008C7020008C70200080C
:1000B000C7020008313F0008C7020008C702000855
:1000C000C7020008C7020008C7020008C7020008EC
:1000D000C70200082D420008C7020008C702000836
:1000E000C7020008C702000800000000C70200089D
:1000F000C7020008C7020008C7020008C7020008BC
:10010000C7020008C7020008C7020008C7020008AB
:10011000C7020008C7020008C7020008C70200089B
:10012000C7020008C7020008C7020008C70200088B
:10013000C7020008C7020008C7020008C70200087B
:1001400000000000000000000000000000000000AF
:10015000C7020008C7020008C7020008C70200085B
:10016000C7020008C7020008C7020008C70200084B
:10017000C7020008C7020008C7020008C70200083B
:10018000C7020008C7020008C7020008C70200082B
:10019000C7020008C7020008C7020008C70200081B
:1001A000C7020008C7020008C7020008C70200080B
:1001B000C7020008C7020008C7020008C7020008FB
:1001C000C7020008C7020008C7020008C7020008EB
:1001D000C7020008C7020008C7020008C7020008DB
:1001E000C7020008C7020008C7020008C7020008CB
:1001F000C7020008C7020008C7020008C7020008BB
:10020000C7020008C7020008C7020008C7020008AA
:10021000C7020008C7020008C7020008C70200089A
:10022000C7020008C7020008C7020008000000005B
:10023000C7020008C702000800000000C70200084B
:10024000C7020008C7020008C7020008C70200086A
:10025000C7020008C7020008C7020008C70200085A
:10026000C7020008C7020008C7020008C70200084A
:10027000C7020008C7020008C7020008000000000B
:10028000C702000800000000C702000800000000CC
:1002900000000000C7020008DFF80CD000F03CF8B6
:1002A0000048004739430008A80A00240648804750
:1002B00006480047FEE7FEE7FEE7FEE7FEE7FEE74B
:1002C000FEE7FEE7FEE7FEE79D3E00089902000814
:1002D00040EA01039B0703D009E008C9121F08C0C8
:1002E000042AFAD203E011F8013B00F8013B521E48
:1002F000F9D27047D2B201E000F8012B491EFBD2BF
:1003000070470022F6E710B513460A460446194620
:10031000FFF7F0FF204610BD064C074D06E0E068F1
:1003200040F0010394E8070098471034AC42F6D33C
:10033000FFF7B6FFFC8F00081C90000800B587B0DF
:1003400000BF2A48006840F00200284908600846BB
:10035000006800F00200019000BF00BF00BF084627
:10036000006840F0040008600846006800F00400DF
:10037000019000BF00BF00BF0846006840F00800C1
:1003800008600846006800F00800019000BF00BF48
:1003900001200290039004900020059002A91448C7
:1003A00000F0F0F901221146114800F01DFB082071
:1003B00002900120039004900220059002A90D48AC
:1003C00000F0E0F9012208210A4800F00DFB40F698
:1003D000FF700290002003900120049002200590FD
:1003E00002A9054800F0CEF907B000BDE04402586C
:1003F00000080258000C02580004025810B586B0DC
:10040000044600BF6CB900BF2748006840F01000E8
:10041000254908600846006800F01000009000BF01
:100420002FE0012C0DD100BF1F48006840F01000E4
:100430001D4908600846006800F01000009000BFE9
:100440001FE0012C0DD100BF1748006840F01000DC
:10045000154908600846006800F01000009000BFD1
:100460000FE0022C0DD100BF0F48006840F01000D3
:100470000D4908600846006800F01000009000BFB9
:1004800000BF00BF094830F814000190002002901E
:100490000120039003200490054951F8240001A98C
:1004A00000F070F906B010BDE04402588248000820
:1004B0001C00002410B586B0044600BF6CB900BF14
:1004C0002348006840F01000214908600846006891
:1004D00000F01000009000BF1FE0012C0DD100BF04
:1004E0001B48006840F01000194908600846006881
:1004F00000F01000009000BF0FE0022C0DD100BFF3
:100500001348006840F01000114908600846006870
:1005100000F01000009000BF00BF00BF0D4830F891
:1005200014000190012002900390032004900A49D6
:1005300051F8240001A900F025F9064A32F81410F8
:10054000054A52F82400012200F04EFA06B010BD10
:10055000E04402584C4800080C00002400BFFEE7AD
:100560007047000070B504461D460023B5F5804F66
:1005700013D154F822300C480340D1E9000640EA78
:1005800006108E6840EA06208E8940EA06408E6991
:100590003043034344F8223003E06FF0704044F8E6
:1005A0002200002070BD00000000F0CF10B5024610
:1005B0000023086852F820301B480340D1E90104A9
:1005C0002043CC6820430C6920434C6920438C694C
:1005D0002043CC6920430C6A20434C6A20438C6A38
:1005E0002043CC6A20430C6B20438C6B20434C6B24
:1005F000204303438868082801D143F0400308687A
:1006000042F82030086BB0F5801F05D1086818B19A
:1006100010680C6B20431060086818B110684C6BB0
:1006200020431060002010BD8004C0FF30B5034699
:1006300014460022601C53F8202002F04042D1E909
:10064000000540EA05108D6840EA05208D8940EAE2
:100650000545088A401E45EA0055087D801E45EA8A
:1006600000608D6928430243601C43F8202018680D
:1006700000F4801038B1586820F47002088A401ED7
:1006800042EA00525A60002030BD000010B5044616
:100690000CB9012010BD94F83500022803D0802049
:1006A00060650120F6E734492068884205D3334964
:1006B0002068884201D8012000E00020C0B1042059
:1006C00084F835002C49206888420AD32B492068D9
:1006D000884206D82068006820F001002168086080
:1006E00048E02068006820F001002168086041E0CF
:1006F0002068006820F00E00216808601E4920680C
:1007000088420AD31D492068884206D820680068BC
:1007100020F001002168086005E02068006820F0F2
:10072000010021680860206E006820F48070216E4E
:10073000086094F85C100120884011490860D4E9F1
:1007400019104860E06E40B1E06E006820F48070DF
:10075000E16E0860D4E91C10486000BF002084F8F6
:10076000340000BF012084F83500206D10B1204610
:10077000216D884700208DE710000240B804024038
:1007800004540258F8B502460B4600210026002406
:100790000020824D00BFFCE0012707FA01F61F6828
:1007A00007EA0604B4427CD15F68022F02D05F687A
:1007B000122F1AD14FEAD10C02F1200757F82C0062
:1007C0004F074FEAD76C0F2707FA0CF7B8434FEAE9
:1007D000417C4FEADC6C1F6907FA0CF738434FEA9B
:1007E000D10C02F1200747F82C0010684FEA410CA9
:1007F000032707FA0CF7B8431F7907F003074FEAFE
:10080000410C07FA0CF7384310605F68012F08D0DD
:100810005F68022F05D05F68112F02D05F68122F2A
:1008200017D190684FEA410C032707FA0CF7B84339
:100830004FEA410CDF6807FA0CF7384390605068C4
:1008400001278F40B8431F79C7F300178F40384303
:100850005060D0684FEA410C032707FA0CF7B84301
:100860004FEA410C9F6807FA0CF73843D0605F6885
:1008700007F08057B7F1805F95D100BF484F3F68C0
:1008800047F00207DFF818C1CCF8007067463F68F0
:1008900007F00207009700BF00BF424F4FEA910CDC
:1008A00000E075E057F82C008F074FEA177C0F2700
:1008B00007FA0CF7B8433C4FBA4201D100272DE0AC
:1008C0003A4FBA4201D1012728E0394FBA4201D14B
:1008D000022723E0374FBA4201D103271EE0364FEB
:1008E000BA4201D1042719E0344FBA4201D1052799
:1008F00014E0334FBA4201D106270FE0314FBA421C
:1009000001D107270AE0304FBA4201D1082705E09C
:100910002E4FBA4201D1092700E00A274FEA817C15
:100920004FEA1C7C07FA0CF738431E4F4FEA910C34
:1009300047F82C002868A0435F6807F48037B7F5B4
:10094000803F00D1204328606868A0435F6807F4B7
:100950000037B7F5003F00D1204368604FF0B04743
:100960003868A0435F6807F48017B7F5801F00D18F
:1009700020434FF0B04738607868A0435F6807F4C1
:100980000017B7F5001F00D120434FF0B047786043
:10099000491C1029FFF400AFF8BD0000800000588A
:1009A000F444025808040058000002580004025899
:1009B00000080258000C0258001002580014025897
:1009C00000180258001C0258002002580024025847
:1009D000024613690B400BB1012000E00020704774
:1009E00042694A40426170470AB1018300E0418395
:1009F0007047000001480068704700004400002470
:100A000003480068034909780844014908607047B1
:100A1000440000244C00002410B5032000F006F927
:100A20000F2000F007F808B1012010BD00F08CF88D
:100A30000020FAE770B504460E4800784FF47A714A
:100A4000B1FBF0F00C490968B1FBF0F5284600F065
:100A500069FF08B1012070BD102C07D20022214689
:100A6000501E00F0A5F80548046001E00120F2E7FF
:100A70000020F0E74C00002404000024480000247B
:100A80004178154A11600178F9B1121D4168116071
:100A9000017B0907C27A41EA0261827A41EAC241D6
:100AA000427B41EA8241827B41EA4241C27B41EA88
:100AB0000241427A41EA0221027A41EA4201027885
:100AC0001143054A0832116005E00021024A121D57
:100AD0001160121D1160704798ED00E000BF00BF6B
:100AE00000BFBFF35F8F00BF00BF00BF05480068B5
:100AF00020F480300349086000200249703108600A
:100B00007047000024ED00E040F001010D4A116043
:100B10000C497039096841F480310A4A703A116011
:100B200000BF00BF00BFBFF34F8F00BF00BF00BFBB
:100B300000BF00BF00BFBFF36F8F00BF00BF00BF8B
:100B40007047000094ED00E07047000010B50146CA
:100B50000846002817DB00F01F0301229A400B4BC8
:100B6000440943F8242000BF00BF00BFBFF34F8FEC
:100B700000BF00BF00BF00BF00BF00BFBFF36F8F4B
:100B800000BF00BF00BF00BF10BD000080E100E05B
:100B900001460846002809DB00F01F0301229A40A5
:100BA00043099B0003F1E023C3F8002100BF704715
:100BB0002DE9F05F80460D46164603F061FB0746BF
:100BC00039462A46334601F00700C0F1070ABAF158
:100BD000040F02D94FF0040A01E0C0F1070AD14620
:100BE00000F1040ABAF1070F02D24FF0000A01E047
:100BF000A0F1030AD4464FF0010A0AFA09FAAAF151
:100C0000010A0AEA020A0AFA0CFA4FF0010B0BFA7F
:100C10000CFBABF1010B0BEA030B4AEA0B04214678
:100C2000404603F035FBBDE8F09F000000BF00F038
:100C30000702064B19684FF6FF031940044B0B439C
:100C400043EA0221014B196000BF70470CED00E040
:100C50000000FA0570B504460D4600268D48006870
:100C600000F00700A8420ED28A48006820F0070072
:100C70002843884908600846006800F00700A84239
:100C800001D0012070BD207800F00200022807D1B9
:100C90008148006820F00F00E16808437E49086041
:100CA000207800F00100002851D07B48006820F433
:100CB0007060A1680843784908606068022807D11D
:100CC000754818380068C0F34040F8B90120D9E7EA
:100CD0006068032807D1704818380068C0F3406086
:100CE000A0B90120CEE76068012807D16A4818380A
:100CF0000068C0F3002048B90120C3E766481838EF
:100D00000068C0F3800008B90120BBE762480838DA
:100D1000006820F00700616808435F4908390860EF
:100D2000FFF768FE06466068022811D108E0FFF769
:100D300061FE801B41F28831884201D90320A1E77E
:100D400055480838006800F038001028EFD13AE024
:100D50006068032811D108E0FFF74CFE801B41F2C8
:100D60008831884201D903208CE74B480838006855
:100D700000F038001828EFD125E06068012811D173
:100D800008E0FFF737FE801B41F28831884201D925
:100D9000032077E740480838006800F0380008284A
:100DA000EFD110E008E0FFF725FE801B41F288310B
:100DB000884201D9032065E737480838006800F009
:100DC00038000028EFD13348006800F00700A8423F
:100DD0000ED93048006820F0070028432D490860EC
:100DE0000846006800F00700A84201D0012049E74A
:100DF000207800F00400042807D12748006820F07C
:100E000070002169084324490860207800F0080038
:100E1000082809D12048001D006820F07000616991
:100E200008431D49091D0860207800F010001028B3
:100E300009D11948001D006820F4E060A169084349
:100E40001549091D0860207800F02000202809D1EC
:100E500011480830006820F07000E16908430E492D
:100E60000831086000F01EF80B49096801F4706150
:100E70004FF4807292FAA2F2B2FA82F2D140074A9B
:100E8000515CC840064908600F20FFF7D3FD0020E1
:100E9000F8E6000000200052184402580C480008F0
:100EA0000400002470B5012500EE905A00220121B3
:100EB00000230024DFED861AB0EE610ADFED841A0C
:100EC000B0EE611A0020834D2D6805F0380535B16C
:100ED000082D15D0102D15D0182D7CD114E07D4D86
:100EE000103D2D68C5F3401545B17A4D103D2D6874
:100EF000C5F3C106784D25FA06F000E07648E5E036
:100F00007648E3E07648E1E0724D18352D6805F04B
:100F10000302704D18352D68C5F305116D4D1C3554
:100F20002D6805F001036B4D24352D68C5F3CC0504
:100F300015FB03F501EE905AF8EE611AB0EE610A66
:100F400022B1012A4FD0022A7DD16BE0614D103DC4
:100F50002D68C5F340152DB35E4D103D2D68C5F3CA
:100F6000C1065D4D25FA06F4B4FBF1F501EE905A89
:100F7000B8EE612ADFED5B1AC0EE212A554D20350F
:100F80002D68C5F3080501EE905AF8EE611A72EE6D
:100F9000A11AF7EE002A71EEA21A62EE211AB0EE43
:100FA000611A1FE04C4DB5FBF1F501EE905AB8EE19
:100FB000612ADFED4C1AC0EE212A464D20352D68FE
:100FC000C5F3080501EE905AF8EE611A72EEA11A07
:100FD000F7EE002A00E077E071EEA21A62EE211A25
:100FE000B0EE611A5EE03D4DB5FBF1F501EE905AB1
:100FF000B8EE612ADFED3B1AC0EE212A354D2035CF
:101000002D68C5F3080501EE905AF8EE611A72EEEC
:10101000A11AF7EE002A71EEA21A62EE211AB0EEC2
:10102000611A3FE02E4DB5FBF1F501EE905AB8EE96
:10103000612ADFED2C1AC0EE212A264D20352D68BD
:10104000C5F3080500E00EE001EE905AF8EE611AD3
:1010500072EEA11AF7EE002A71EEA21A62EE211AC0
:10106000B0EE611A1EE01D4DB5FBF1F501EE905A90
:10107000F8EE612ADFED1B1A80EE212A154D20358E
:101080002D68C5F3080501EE905AF8EE611A72EE6C
:10109000211AB7EE002A71EE821A62EEA11AB0EEA2
:1010A000611A00BF00BF0B4D20352D68C5F34625E2
:1010B0006D1C00EE905AF8EE601A81EE212AFCEECB
:1010C000C21A11EE900A01E0044800BF00BF70BDD3
:1010D00000000000104402580090D00300093D00B9
:1010E00040787D010000004670B504460025207858
:1010F00000F00100002872D0F948006800F03800C4
:1011000010280CD0F648006800F03800182812D1DA
:10111000F3481830006800F0030002280BD1F048B3
:1011200010380068C0F3404000286DD06068002887
:101130006AD1012070BD00BF6068B0F5803F08D162
:10114000E7481038006840F48030E54910390860FD
:101150002EE0606868B9E2481038006820F48030FA
:10116000DF49103908600846006820F480200860D4
:101170001EE06068B0F5A02F0DD1D9481038006886
:1011800040F48020D649103908600846006840F4D1
:10119000803008600CE0D2481038006820F48030BD
:1011A000CF49103908600846006820F480200860A4
:1011B00000BF6068A0B1FFF71DFC054608E0FFF71F
:1011C00019FC401B41F28831884201D90320B1E764
:1011D000C34810380068C0F340400028EFD013E047
:1011E000FFF708FC054608E0FFF704FC401B41F24E
:1011F0008831884201D903209CE7B948103800683B
:10120000C0F340400028EFD1207800F0020002280F
:1012100047D1B348006800F0380058B1B0480068C2
:1012200000F0380018283ED1AD481830006800F0B2
:101230000300B8BBAA4810380068C0F3800018B19A
:10124000E06808B9012075E7A5481038006820F06B
:101250001900E1680843A24910390860FFF7CAFB8A
:10126000054606E0FFF7C6FB401B022801D9032014
:1012700060E79B4810380068C0F380000028F1D078
:1012800097480C38006820F47C304FF47C3292FA96
:10129000A2F2B2FA82F221699140084390490C39D6
:1012A00008604AE0FFE7E06868B38D4810380068DE
:1012B00020F01900E1680843894910390860FFF7F8
:1012C00099FB054606E0FFF795FB401B022801D974
:1012D00003202FE7824810380068C0F38000002800
:1012E000F1D07F480C38006820F47C304FF47C3219
:1012F00092FAA2F2B2FA82F2216991400843784947
:101300000C39086019E076481038006820F00100B8
:10131000734910390860FFF76DFB054606E0FFF7DB
:1013200069FB401B022801D9032003E76C481038F1
:101330000068C0F380000028F1D1207800F0100090
:10134000102877D16648006800F0380008280CD0D3
:101350006348006800F03800182823D1604818302E
:10136000006800F0030001281CD15D4810380068B7
:10137000C0F3002020B1E069802801D00120D9E627
:1013800057480C38006820F0F8404FF0F84292FAC5
:10139000A2F2B2FA82F2216A9140084350490C3914
:1013A000086047E0E06958B34D481038006840F0E5
:1013B00080004B4910390860FFF71CFB054606E02A
:1013C000FFF718FB401B022801D90320B2E644486E
:1013D00010380068C0F300200028F1D040480C38D5
:1013E000006820F0F8404FF0F84292FAA2F2B2FA08
:1013F00082F2216A9140084339490C39086019E0AA
:1014000037481038006820F08000354910390860EE
:10141000FFF7F0FA054606E0FFF7ECFA401B02285A
:1014200001D9032086E62E4810380068C0F300205A
:101430000028F1D1207800F00800082836D1606932
:10144000D0B127486430006840F00100244964317D
:101450000860FFF7CFFA054606E0FFF7CBFA401B1E
:10146000022801D9032065E61D4864300068C0F3F6
:1014700040000028F1D019E019486430006820F0DD
:101480000100174964310860FFF7B4FA054606E029
:10149000FFF7B0FA401B022801D903204AE61048A2
:1014A00064300068C0F340000028F1D1207800F0DB
:1014B0002000202834D1A069D8B10948103800682C
:1014C00040F48050064910390860FFF793FA05464A
:1014D00008E0FFF78FFA401B022803D9032029E612
:1014E00010440258AF480068C0F340300028F0D0E4
:1014F00016E0AC48006820F48050AA490860FFF765
:1015000079FA054606E0FFF775FA401B022801D973
:1015100003200FE6A3480068C0F340300028F2D152
:10152000207800F0040004287DD19F48006840F432
:1015300080709D490860FFF75DFA054606E0FFF7F9
:1015400059FA401B642801D90320F3E59648006846
:1015500000F480700028F2D000BFA068012808D1F4
:1015600090487030006840F001008E49703108608A
:101570002DE0A06868B98B487030006820F0010049
:101580008849703108600846006820F0040008604F
:101590001DE0A06805280DD182487030006840F039
:1015A00004008049703108600846006840F001007E
:1015B00008600CE07B487030006820F00100794939
:1015C000703108600846006820F00400086000BF21
:1015D000A068A0B1FFF70EFA054608E0FFF70AFA87
:1015E000401B41F28831884201D90320A2E56D48B1
:1015F00070300068C0F340000028EFD013E0FFF720
:10160000F9F9054608E0FFF7F5F9401B41F288318A
:10161000884201D903208DE5624870300068C0F32C
:1016200040000028EFD1606A00287CD05D4810306F
:10163000006800F03800182876D0606A022874D15B
:101640005848006820F0807056490860FFF7D2F9CA
:10165000054606E0FFF7CEF9401B022801D903201A
:1016600068E550480068C0F340600028F2D100BF30
:10167000D4E90A1041EA00104A492831096840F2C9
:10168000F33291430843474928310860208E401EB9
:10169000C0F30800616B491E4FF47E4202EA41210B
:1016A0000843218F491ED20102EA014108433C212F
:1016B000095D491E120202EA0161084339493031CD
:1016C000086000BF081D00684FF6F87188434FF6A8
:1016D000F87292FAA2F2B2FA82F2A16C9140084337
:1016E0003049343108602F482C30006820F00C005D
:1016F000216C08432B492C3108600846006820F013
:101700000200616C084327492C31086008460068D4
:1017100040F4803008600846006840F400300860FB
:101720000846006802E03BE038E01FE040F480201B
:1017300008600846006840F0010008601948006829
:1017400040F0807017490860FFF754F9054606E03D
:10175000FFF750F9401B022801D90320EAE41148A1
:101760000068C0F340600028F2D019E00D4800681E
:1017700020F080700B490860FFF73CF9054606E051
:10178000FFF738F9401B022801D90320D2E40548AD
:101790000068C0F340600028F2D101E00120C9E4F4
:1017A0000020C7E4004402580048025870B50446BF
:1017B0000E4615460CB9012070BD94F8450028B9B5
:1017C000002084F84400204600F024F804F10801C9
:1017D0002068FEF7EBFE3146A2682068FEF726FF80
:1017E0002946E36AD4E90102FEF7BCFEA16820683D
:1017F00050F8210040F00100A268216841F8220061
:101800000348006840F00040014908600020D3E729
:101810000040005210B586B0044600BF344800684E
:1018200040F48050324908600846006800F4805057
:10183000009000BF00BF00BF2D480C30006840F092
:1018400008002B490C3108600846006800F00800C9
:10185000009000BF00BF00BF0846006840F01000C5
:1018600008600846006800F01000009000BF00BF4C
:1018700000BF1F48006840F480501D4908600846BA
:10188000006800F48050009000BF00BF4FF400508B
:10189000019001200290002003900320049001A9F0
:1018A0001448FEF76FFF4FF4805001900120029022
:1018B000002003900320049001A90E48FEF762FF68
:1018C0004CF6B37001900220029001200390032097
:1018D00004900C20059001A90648FEF753FF4FF62F
:1018E0008070019001A90448FEF74CFF06B010BDBE
:1018F000D4440258000C025800100258042808D1A1
:101900004FF0E021096941F004014FF0E02211613C
:1019100007E04FF0E021096921F004014FF0E022D7
:101920001161704770B504462546681EB0F1807F8E
:1019300001D301200FE0681E4FF0E02148610F2124
:101940004FF0FF3002F0A4FC00204FF0E02188614E
:1019500007200861002070BD10B504460CB90120B5
:1019600010BD94F83D0028B9002084F83C002046C2
:1019700000F00CF8022084F83D00211D206802F0E0
:101980003DFB012084F83D000020E9E77047014657
:101990000868C06840F001000A68D06008680088E4
:1019A00040F001000A681080002070470146086876
:1019B000C06820F001000A68D06000BF0868006AB3
:1019C00041F21112104050B90868006A921010409C
:1019D00028B90868008820F001000A68108000BF5C
:1019E000002070477047704701460022002391F89D
:1019F000792091F87A3042EA030070472DE9F041EE
:101A000004462068C569206807682068866805F074
:101A10000F08B8F1000F0DD105F0200050B107F00C
:101A2000200010B906F0805020B1204602F078FB6B
:101A3000BDE8F081B8F1000F72D05D48304018B9B0
:101A400007F4907000287AD005F0010048B107F43F
:101A5000807030B1012021680862E06F40F0010021
:101A6000E06705F0020048B106F0010030B1022045
:101A700021680862E06F40F00400E06705F00400B0
:101A800048B106F0010030B1042021680862E06F1F
:101A900040F00200E06705F0080078B107F0200090
:101AA00028B906F0805010B906F0010030B10820C6
:101AB00021680862E06F40F00800E067E06F70B3F3
:101AC00005F0200040B107F0200010B906F080506A
:101AD00010B1204602F024FBE06F00F0080020B9AE
:101AE0002068806800F0400018B3204602F0F8FA41
:101AF0002068806800F04000B8B12068806820F05D
:101B0000400021688860606F58B12A48616F08659D
:101B1000606FFEF7BBFD10B1606F016D88470DE08F
:101B20000DE02046FFF75FFF08E02046FFF75BFF70
:101B300004E02046FFF757FF0020E06778E705F450
:101B4000801078B106F4800060B14FF480102168F5
:101B50000862202084F8790084F87A002046FFF794
:101B600041FF65E705F0800048B107F0800010B93B
:101B700006F4000018B1204602F017FB58E705F004
:101B8000400030B107F0400018B1204602F0B8FA2A
:101B90004EE705F4000040B107F0804028B120680E
:101BA000006820F080402168086000BF40E7000026
:101BB00001000010C940000810B5034693F87A00F0
:101BC000202867D101B10AB9012010BD00BF93F8E8
:101BD0007800012801D10220F7E7012083F878007E
:101BE00000BF5966A3F86820A3F86A2000BF986870
:101BF000B0F5805F0AD1186920B940F2FF10A3F850
:101C00006C001CE0FF20A3F86C0018E0986848B94D
:101C1000186918B9FF20A3F86C0010E07F20A3F822
:101C20006C000CE09868B0F1805F08D1186918B9B1
:101C30007F20A3F86C0002E03F20A3F86C0000BFF7
:101C40000020D867222083F87A0000BF002083F8A4
:101C5000780000BF1868806840F001001C68A06030
:101C60001868006800F0005060B11868006840F41F
:101C700080701C6820601868806840F080501C6884
:101C8000A06005E01868006840F490701C6820604F
:101C900000209AE7022098E71D4A0168914236D158
:101CA0001C49098801F4004189BB1A49098801F4DB
:101CB000804171B1184909780A2903D00021154AD9
:101CC000118024E01349098841F40041114A118030
:101CD0001DE0114909780D2906D10E49098841F402
:101CE00080410C4A118012E00B490978094A128898
:101CF000C2F30D02094B995406490988491C054A4B
:101D0000118011460988C72901DD00211180704723
:101D100000100140380000243A000024200500246F
:101D2000704700BFFEE710B50020FEF767FB0120FB
:101D3000FEF764FB0220FEF761FB0320FEF75EFB6B
:101D400010BD000010B50446012C01D12B490870CC
:101D50002A480078002835D001212948FEF738FEAE
:101D600070B102212648FEF733FE48B10421244811
:101D7000FEF72EFE20B108212148FEF729FE08BB00
:101D80000A2002F0A8FA00201C49087001211C4812
:101D9000FEF71EFE08B9012010BD02211848FEF70B
:101DA00017FE08B90220F7E704211548FEF710FED8
:101DB00008B90320F0E708211148FEF709FED8B959
:101DC0000420E9E701210E48FEF702FE012813D1A5
:101DD00002210B48FEF7FCFD01280DD10421084823
:101DE000FEF7F6FD012807D108210548FEF7F0FDB2
:101DF000012801D1014908700020CDE72C00002402
:101E00000010025818B5044604480094438802881C
:101E10000021084600F0F6F918BD00001005002466
:101E20008B490872032842D1898848F25252914264
:101E30000ED14FF4A071864A1180F02151802C21DF
:101E400051812A2191812B21D1816021D180FDE016
:101E50007F49898845F2084291420FD14FF4A07121
:101E60007B4A1180F02151802221518120219181D2
:101E70002121D18141F20801D180E7E074498988AC
:101E800045F210529142E2D14FF44871704A1180EC
:101E90004FF4F07151804FF4305151814FF428517B
:101EA00091814FF42C51D181A021D180CEE0042822
:101EB00043D16749898848F2525291420ED14FF47A
:101EC000A071634A1180F02151802C2151812A2177
:101ED00091812B21D181A021D180B7E05C498988F3
:101EE00045F2084291420FD14FF4A071584A118037
:101EF000F021518022215181202191812121D18104
:101F000041F23801D180A1E05149898845F210524F
:101F100091429CD14FF448714D4A11804FF4F071B9
:101F200051804FF4305151814FF4285191814FF439
:101F30002C51D1816021D18088E0012843D14449CE
:101F4000898848F2525291420ED1F021404A1180C4
:101F50004FF4A07151802C2151812A2191812B2194
:101F6000D181C021D18071E03949898845F2084288
:101F700091420FD1F021364A11804FF4A071518067
:101F800022215181202191812121D1814FF4815140
:101F9000D1805BE02E49898845F21052914255D19B
:101FA0004FF4F0712A4A11804FF4487151804FF478
:101FB000305151814FF4285191814FF42C51D181EE
:101FC000C021D18042E02249898848F25252914290
:101FD0000ED1F0211E4A11804FF4A07151802C21A6
:101FE00051812A2191812B21D1810021D1802DE0A5
:101FF0001749898845F2084291420FD1F021144ACD
:1020000011804FF4A07151802221518120219181B2
:102010002121D18141F21001D18017E00C4989883A
:1020200045F21052914211D14FF4F071084A1180DB
:102030004FF4487151804FF4305151814FF4285181
:1020400091814FF42C51D1810021D1807047000043
:10205000100500242DE9FF4F84B081468A460020F8
:10206000039002900698A0EB09050798A0EB0A06DA
:10207000CDF80490CDF800A0002D01DD012705E08A
:102080000DB9002702E04FF0FF376D42002E02DD50
:102090004FF0010806E016B94FF0000802E04FF0DB
:1020A000FF387642B54201DD2C4600E034464FF061
:1020B000000B21E0009A91B2019A90B200F022F850
:1020C0000398284403900298304402900398A04259
:1020D00005DD0398001B0390019838440190029895
:1020E000A04205DD0298001B029000984044009039
:1020F0000BF101001FFA80FB601C8345DADD08B09C
:10210000BDE8F08F30B504460D460C48808845F296
:102110000841884206D101231A462946204601F08B
:1021200059FB03E02946204601F0FCFA01F0DEFDF0
:10213000034800880349088030BD000010050024D2
:10214000300000240000026070B504460D461646BB
:102150002A48808848F25251884214D127498889F8
:1021600001F046FD201201F037FDE0B201F034FD30
:102170002249C88901F03CFD281201F02DFDE8B28A
:1021800001F02AFD32E01D48808845F2084188426E
:1021900006D101231A462946204601F01BFB25E003
:1021A0001648808845F2105188421FD1134988890A
:1021B00001F01EFD201201F00FFD10498989491C14
:1021C00088B201F015FDE0B201F006FD0B49C889A7
:1021D00001F00EFD281201F0FFFC0849C989491CD5
:1021E00088B201F005FDE8B201F0F6FC0348408931
:1021F00003490880891C0E8070BD00001005002472
:10220000FEFF01602DE9F84F04460D4616461F46B5
:10221000DDF828900020009083462348808845F20E
:10222000084188421ED1781B83B2301B82B22946F6
:10223000204601F0CFFA01F059FD00BF05E01FFA7A
:1022400089F001F04DFD0BF1010B781B311B484368
:102250005845F4D81448438802880021084601F004
:10226000B9FA1EE0301B401C80B20090A84616E070
:102270004146204601F056FA01F038FD4FF0000AC1
:1022800006E00A49A1F800900AF101001FFA80FA5D
:1022900000988245F5DB08F101001FFA80F8B84587
:1022A000E6DDBDE8F88F00001005002400000260A4
:1022B00000B58FB0FD48FE490860FE484860002028
:1022C00088600021FA48C16001611021416100214C
:1022D0008161C16101624FF48051416200218162DC
:1022E0004FF48041C1620021016341634FF48011CA
:1022F000816310200890012009904D200A90002051
:102300000E900520019001200290052003900020EE
:10231000079001AA08A9E648FFF748FA0A2001F049
:10232000DAFF00224FF40061E348FEF75DFB0A206C
:1023300001F0D1FF01221103DF48FEF755FB0A200F
:1023400001F0C9FF042001F0E1F901F0D5F9DB4902
:10235000888001F0D1F9D9498880084680884FF6F5
:10236000FF7101EA0020D549888001F0C5F9D34901
:1023700089880843D14988800846808848F25251AC
:10238000884248D0002001F0C1F9CC498880084635
:10239000808845F2084188423DD04FF4704001F0FA
:1023A00027FC552001F018FC4FF2010001F020FC41
:1023B000AA2001F011FC4FF2020001F019FC52209A
:1023C00001F00AFC4FF2030001F012FC082001F0BA
:1023D00003FC4FF2040001F00BFC012001F0FCFBB8
:1023E0004FF4454001F092F901F086F9B349888035
:1023F000084680884FF6FF7101EA0020AF498880C7
:102400004CF2015001F082F901F076F9AB4989886C
:102410000843AA498880A948808848F252518842D6
:102420007ED1112001F0E4FB782001F054FF36202A
:1024300001F0DEFB002001F0CFFB3A2001F0D8FBD9
:10244000052001F0C9FBB22001F0D2FB0C2001F005
:10245000C3FB0C2001F0C0FB002001F0BDFB3320CA
:1024600001F0BAFB332001F0B7FBB72001F0C0FB4D
:10247000352001F0B1FBBB2001F0BAFB282001F0B0
:10248000ABFBC02001F0B4FB2C2001F0A5FBC22067
:1024900001F0AEFB012001F09FFBC32001F0A8FB7F
:1024A0000B2001F099FBC42001F0A2FB202001F0D9
:1024B00093FBC62001F09CFB0F2001F08DFBD02088
:1024C00001F096FBA42001F087FBA12001F084FB22
:1024D000E02001F08DFBD02001F07EFB012001F017
:1024E0007BFB082001F078FB0F2001F075FB112029
:1024F00001F072FB2A2001F06FFB362001F06CFB2B
:10250000552001F069FB442001F066FB3A2001F000
:1025100063FB0B2001F060FB062001F05DFB00E097
:102520004BE0112001F058FB202001F055FBE12089
:1025300001F05EFBD02001F04FFB022001F04CFBCC
:10254000072001F049FB0A2001F046FB0B2001F0B7
:1025500043FB182001F040FB342001F03DFB4320F9
:1025600001F03AFB4A2001F037FB2B2001F034FB4D
:102570001B2001F031FB1C2001F02EFB222001F07A
:102580002BFB1F2001F028FB292001F031FB2C2020
:1025900001F02EFB0320FFF743FC362001F028FB5F
:1025A0004649C88801F018FB444843880288002146
:1025B000084601F00FF901F082B84048808845F2E2
:1025C000084188427CD14FF48071012001F098FBD2
:1025D0004FF4E061022001F093FB41F2300103204F
:1025E00001F08EFB0021042001F08AFB40F2022161
:1025F000082001F085FB0021092001F081FB00216A
:102600000A2001F07DFB00210C2001F079FB002164
:102610000D2001F075FB00210F2001F071FB00215E
:10262000102001F06DFB0021112001F069FB002159
:10263000122001F065FB0021132001F061FBC8208E
:1026400001F049FE0721112001F05AFB322001F070
:1026500042FE41F2B021102001F052FB322001F085
:102660003AFE40F2BD11122001F04AFB322001F087
:1026700032FE4FF4A051132001F042FB0E2129201D
:1026800001F03EFB322001F026FE0021202001F067
:1026900037FB40F23F11212001F032FB40F60D31B3
:1026A000302001F02DFB41F623110AE000400052DA
:1026B000C404002404410052000C025810050024F8
:1026C000ACE0312001F01CFB41F62641322001F044
:1026D00017FB42F21C61332001F012FB42F2194158
:1026E000342001F00DFB40F60B51352001F008FBC2
:1026F00041F20601362001F003FB4FF4C26137209E
:1027000001F0FEFA40F20671382001F0F9FA4FF4B8
:102710004171392001F0F4FA40F605613A2001F0E8
:10272000EFFA40F601613B2001F0EAFA4FF48771BD
:102730003C2001F0E5FA40F20E513D2001F0E0FAB4
:1027400040F203413E2001F0DBFA40F207613F20F6
:1027500001F0D6FA0021502001F0D2FAEF215120E9
:1027600001F0CEFA0021522001F0CAFA40F23F11E6
:10277000532001F0C5FA4FF42741602001F0C0FA60
:102780000121612001F0BCFA00216A2001F0B8FAB1
:102790000021802001F0B4FA0021812001F0B0FA7C
:1027A0000021822001F0ACFA0021832001F0A8FA78
:1027B0000021842001F0A4FA0021852001F0A0FA74
:1027C0001021902001F09CFA0021922001F098FA4B
:1027D0000321932001F094FA4FF48871952001F0C1
:1027E0008FFA0021972001F08BFA0021982001F048
:1027F00087FA0320FFF714FBFE48C188032001F08D
:102800007FFA4FF48971072001F07AFAF94843887A
:1028100002880021084600F0DDFFCCE6F5488088FC
:1028200045F210518842F8D1322001F054FD552173
:102830004FF4704001F064FAAA214FF2010001F058
:102840005FFA52214FF2020001F05AFA08214FF2CA
:10285000030001F055FA01214FF2040001F050FA93
:1028600086214BF6014001F04BFA6A214BF60240FB
:1028700001F046FA86214BF6015001F041FA6A2137
:102880004BF6025001F03CFA67214BF6016001F073
:1028900037FA00214FF4514001F032FA5D214DF238
:1028A000011001F02DFA00214DF2021001F028FA7A
:1028B0006B214DF2031001F023FA00214DF20410B8
:1028C00001F01EFA84214DF2051001F019FA0021E1
:1028D0004DF2061001F014FA9C214DF2071001F0A0
:1028E0000FFA00214DF2081001F00AFAB1214DF261
:1028F000091001F005FA00214DF20A1001F000FA6A
:10290000D9214DF20B1001F0FBF900214DF20C1012
:1029100001F0F6F9FD214DF20D1001F0F1F9012160
:102920004DF20E1001F0ECF938214DF20F1001F0CC
:10293000E7F901214DF2101001F0E2F968214DF2A2
:10294000111001F0DDF901214DF2121001F0D8F95A
:10295000B9214DF2131001F0D3F901214DF21410F9
:1029600001F0CEF9FB214DF2151001F0C9F9022159
:102970004DF2161001F0C4F963214DF2171001F069
:10298000BFF902214DF2181001F0BAF9B9214DF248
:10299000191001F0B5F902214DF21A1001F0B0F949
:1029A000BB214DF21B1001F0ABF903214DF21C10BD
:1029B00001F0A6F903214DF21D1001F0A1F9032148
:1029C0004DF21E1001F09CF946214DF21F1001F04E
:1029D00097F903214DF2201001F092F969214DF28F
:1029E000211001F08DF903214DF2221001F088F938
:1029F0008F214DF2231001F083F903214DF22410B1
:102A000001F07EF9A4214DF2251001F079F903219E
:102A10004DF2261001F074F9B9214DF2271001F0A2
:102A20006FF903214DF2281001F06AF9C7214DF228
:102A3000291001F065F903214DF22A1001F060F927
:102A4000C9214DF22B1001F05BF903214DF22C103E
:102A500001F056F9CB214DF22D1001F051F903216F
:102A60004DF22E1001F04CF9CB214DF22F1001F058
:102A700047F903214DF2301001F042F9CB214DF21C
:102A8000311001F03DF903214DF2321001F038F917
:102A9000CC214DF2331001F033F900214FF45240B4
:102AA00001F02EF95D214DF2012001F029F90021FC
:102AB0004DF2022001F024F96B214DF2032001F0C8
:102AC0001FF900214DF2042001F01AF984214DF282
:102AD000052001F015F900214DF2062001F010F952
:102AE0009C214DF2072001F00BF900214DF2082046
:102AF00001F006F9B1214DF2092001F001F90021A0
:102B00004DF20A2001F0FCF8D9214DF20B2001F022
:102B1000F7F800214DF20C2001F0F2F8FD214DF202
:102B20000D2001F0EDF801214DF20E2001F0E8F842
:102B300038214DF20F2001F0E3F801214DF2102071
:102B400001F0DEF868214DF2112001F0D9F80121E1
:102B50004DF2122001F0D4F8B9214DF2132001F00A
:102B6000CFF801214DF2142001F0CAF8FB214DF2FB
:102B7000152001F0C5F802214DF2162001F0C0F831
:102B800063214DF2172001F0BBF802214DF218200D
:102B900001F0B6F8B9214DF2192001F0B1F8022187
:102BA0004DF21A2001F0ACF8BB214DF21B2001F0D0
:102BB000A7F803214DF21C2001F0A2F803214DF2E9
:102BC0001D2001F09DF803214DF21E2001F098F820
:102BD00046214DF21F2001F093F803214DF22020F1
:102BE00001F08EF869214DF2212001F089F80321CE
:102BF00002E00000100500244DF2222001F080F8D0
:102C00008F214DF2232001F07BF803214DF2242087
:102C100001F076F8A4214DF2252001F071F803218E
:102C20004DF2262001F06CF8B9214DF2272001F079
:102C300067F803214DF2282001F062F8C7214DF218
:102C4000292001F05DF803214DF22A2001F058F807
:102C5000C9214DF22B2001F053F803214DF22C2015
:102C600001F04EF8CB214DF22D2001F049F803215F
:102C70004DF22E2001F044F8CB214DF22F2001F02F
:102C80003FF803214DF2302001F03AF8CB214DF20C
:102C9000312001F035F803214DF2322001F030F8F7
:102CA000CC214DF2332001F02BF800214FF453409A
:102CB00001F026F85D214DF2013001F021F80021EC
:102CC0004DF2023001F01CF86B214DF2033001F09F
:102CD00017F800214DF2043001F012F884214DF272
:102CE000053001F00DF800214DF2063001F008F832
:102CF0009C214DF2073001F003F800214DF208301D
:102D000000F0FEFFB1214DF2093000F0F9FF002183
:102D10004DF20A3000F0F4FFD9214DF20B3000F0F3
:102D2000EFFF00214DF20C3000F0EAFFFD214DF2E3
:102D30000D3000F0E5FF01214DF20E3000F0E0FF14
:102D400038214DF20F3000F0DBFF01214DF2103041
:102D500000F0D6FF68214DF2113000F0D1FF0121C3
:102D60004DF2123000F0CCFFB9214DF2133000F0DB
:102D7000C7FF01214DF2143000F0C2FFFB214DF2DC
:102D8000153000F0BDFF02214DF2163000F0B8FF03
:102D900063214DF2173000F0B3FF02214DF21830DD
:102DA00000F0AEFFB9214DF2193000F0A9FF022169
:102DB0004DF21A3000F0A4FFBB214DF21B3000F0A1
:102DC0009FFF03214DF21C3000F09AFF03214DF2CA
:102DD0001D3000F095FF03214DF21E3000F090FFF2
:102DE00046214DF21F3000F08BFF03214DF22030C1
:102DF00000F086FF69214DF2213000F081FF0321B0
:102E00004DF2223000F07CFF8F214DF2233000F094
:102E100077FF03214DF2243000F072FFA4214DF220
:102E2000253000F06DFF03214DF2263000F068FFE1
:102E3000B9214DF2273000F063FF03214DF2283015
:102E400000F05EFFC7214DF2293000F059FF032149
:102E50004DF22A3000F054FFC9214DF22B3000F022
:102E60004FFF03214DF22C3000F04AFFCB214DF2F1
:102E70002D3000F045FF03214DF22E3000F040FFD1
:102E8000CB214DF22F3000F03BFF03214DF23030CB
:102E900000F036FFCB214DF2313000F031FF03213D
:102EA0004DF2323000F02CFFCC214DF2333000F0E7
:102EB00027FF00214FF4544000F022FF5D214DF226
:102EC000014000F01DFF00214DF2024000F018FF0C
:102ED0006B214DF2034000F013FF00214DF204403E
:102EE00000F00EFF84214DF2054000F009FF0021A3
:102EF0004DF2064000F004FF9C214DF2074000F027
:102F0000FFFE00214DF2084000F0FAFEB1214DF223
:102F1000094000F0F5FE00214DF20A4000F0F0FEFD
:102F2000D9214DF20B4000F0EBFE00214DF20C4098
:102F300000F0E6FEFD214DF20D4000F0E1FE012122
:102F40004DF20E4000F0DCFE38214DF20F4000F053
:102F5000D7FE01214DF2104000F0D2FE68214DF263
:102F6000114000F0CDFE01214DF2124000F0C8FEEC
:102F7000B9214DF2134000F0C3FE01214DF214407F
:102F800000F0BEFEFB214DF2154000F0B9FE02211B
:102F90004DF2164000F0B4FE63214DF2174000F0F0
:102FA000AFFE02214DF2184000F0AAFEB9214DF209
:102FB000194000F0A5FE02214DF21A4000F0A0FEDB
:102FC000BB214DF21B4000F09BFE03214DF21C4043
:102FD00000F096FE03214DF21D4000F091FE03210A
:102FE0004DF21E4000F08CFE46214DF21F4000F0D5
:102FF00087FE03214DF2204000F082FE69214DF250
:10300000214000F07DFE03214DF2224000F078FEC9
:103010008F214DF2234000F073FE03214DF2244036
:1030200000F06EFEA4214DF2254000F069FE032160
:103030004DF2264000F064FEB9214DF2274000F029
:103040005FFE03214DF2284000F05AFEC7214DF2E9
:10305000294000F055FE03214DF22A4000F050FEB9
:10306000C9214DF22B4000F04BFE03214DF22C40C4
:1030700000F046FECB214DF22D4000F041FE032131
:103080004DF22E4000F03CFECB214DF22F4000F0DF
:1030900037FE03214DF2304000F032FECB214DF2DD
:1030A000314000F02DFE03214DF2324000F028FEA9
:1030B000CC214DF2334000F023FE00214FF4554067
:1030C00000F01EFE5D214DF2015000F019FE0021BE
:1030D0004DF2025000F014FE6B214DF2035000F04F
:1030E0000FFE00214DF2045000F00AFE84214DF243
:1030F000055000F005FE00214DF2065000F000FEE4
:103100009C214DF2075000F0FBFD00214DF20850CC
:1031100000F0F6FDB1214DF2095000F0F1FD002163
:103120004DF20A5000F0ECFDD9214DF20B5000F0A9
:10313000E7FD00214DF20C5000F0E2FDFD214DF2C3
:103140000D5000F0DDFD01214DF20E5000F0D8FDD4
:1031500038214DF20F5000F0D3FD01214DF21050F7
:1031600000F0CEFD68214DF2115000F0C9FD0121A3
:103170004DF2125000F0C4FDB9214DF2135000F091
:10318000BFFD01214DF2145000F0BAFDFB214DF2BC
:10319000155000F0B5FD02214DF2165000F0B0FDC3
:1031A00063214DF2175000F0ABFD02214DF2185093
:1031B00000F0A6FDB9214DF2195000F0A1FD022149
:1031C0004DF21A5000F09CFDBB214DF21B5000F057
:1031D00097FD03214DF21C5000F092FD03214DF2AA
:1031E0001D5000F08DFD03214DF21E5000F088FDB2
:1031F00046214DF21F5000F083FD03214DF2205077
:1032000000F07EFD69214DF2215000F079FD03218F
:103210004DF2225000F074FD8F214DF2235000F04A
:103220006FFD03214DF2245000F06AFDA4214DF200
:10323000255000F065FD03214DF2265000F060FDA1
:10324000B9214DF2275000F05BFD03214DF22850CB
:1032500000F056FDC7214DF2295000F051FD032129
:103260004DF22A5000F04CFDC9214DF22B5000F0D8
:1032700047FD03214DF22C5000F042FDCB214DF2D1
:103280002D5000F03DFD03214DF22E5000F038FD91
:10329000CB214DF22F5000F033FD03214DF2305081
:1032A00000F02EFDCB214DF2315000F029FD03211D
:1032B0004DF2325000F024FDCC214DF2335000F09D
:1032C0001FFD00214FF4564000F01AFD5D214DF224
:1032D000016000F015FD00214DF2026000F010FDCC
:1032E0006B214DF2036000F00BFD00214DF20460F4
:1032F00000F006FD84214DF2056000F001FD002183
:103300004DF2066000F0FCFC9C214DF2076000F0DD
:10331000F7FC00214DF2086000F0F2FCB1214DF203
:10332000096000F0EDFC00214DF20A6000F0E8FCBD
:10333000D9214DF20B6000F0E3FC00214DF20C604E
:1033400000F0DEFCFD214DF20D6000F0D9FC012102
:103350004DF20E6000F0D4FC38214DF20F6000F009
:10336000CFFC01214DF2106000F0CAFC68214DF243
:10337000116000F0C5FC01214DF2126000F0C0FCAC
:10338000B9214DF2136000F0BBFC01214DF2146035
:1033900000F0B6FCFB214DF2156000F0B1FC0221FB
:1033A0004DF2166000F0ACFC63214DF2176000F0A6
:1033B000A7FC02214DF2186000F0A2FCB9214DF2E9
:1033C000196000F09DFC02214DF21A6000F098FC9B
:1033D000BB214DF21B6000F093FC03214DF21C60F9
:1033E00000F08EFC03214DF21D6000F089FC0321EA
:1033F0004DF21E6000F084FC46214DF21F6000F08B
:103400007FFC03214DF2206000F07AFC69214DF22F
:10341000216000F075FC03214DF2226000F070FC89
:103420008F214DF2236000F06BFC03214DF22460EC
:1034300000F066FCA4214DF2256000F061FC032140
:103440004DF2266000F05CFCB9214DF2276000F0DF
:1034500057FC03214DF2286000F052FCC7214DF2C9
:10346000296000F04DFC03214DF22A6000F048FC79
:10347000C9214DF22B6000F043FC03214DF22C607A
:1034800000F03EFCCB214DF22D6000F039FC032111
:103490004DF22E6000F034FCCB214DF22F6000F095
:1034A0002FFC03214DF2306000F02AFCCB214DF2BD
:1034B000316000F025FC03214DF2326000F020FC69
:1034C000CC214DF2336000F01BFC24214FF43A4034
:1034D00000F016FC24214BF6012000F011FC242101
:1034E0004BF6022000F00CFC24214FF4394000F090
:1034F00007FC24214BF6011000F002FC24214BF6BE
:10350000021000F0FDFB55214FF4704000F0F8FB75
:10351000AA214FF2010000F0F3FB52214FF202000A
:1035200000F0EEFB08214FF2030000F0E9FB002160
:103530004FF2040000F0E4FBCC214FF4314000F0E6
:10354000DFFB05214FF43C4000F0DAFB05214BF690
:10355000014000F0D5FB05214BF6024000F0D0FB06
:1035600001214FF4384000F0CBFB03214BF6010062
:1035700000F0C6FB03214BF6020000F0C1FB032163
:103580004BF6030000F0BCFB07214BF6025000F0A5
:10359000B7FB31214BF6035000F0B2FB07214BF68D
:1035A000026000F0ADFB31214BF6036000F0A8FB98
:1035B00007214BF6027000F0A3FB31214BF603709C
:1035C00000F09EFBAA214FF47F4000F099FB5521AB
:1035D0004FF6017000F094FB25214FF6027000F0C9
:1035E0008FFB01214FF6037000F08AFB11214FF28F
:1035F000043000F085FB10214FF2063000F080FB14
:1036000000214FF2083000F07BFB00214FF45450B2
:1036100000F076FB55214FF4685000F071FB00215B
:103620004FF4285000F06CFB002142F6012000F01E
:1036300067FB012142F6022000F062FBDF2142F627
:10364000032000F05DFB00214FF42C5000F058FBEC
:10365000002142F6013000F053FB032142F6023014
:1036600000F04EFB1F2142F6033000F049FB4FF4FF
:10367000885000F0BDFA0A2000F02DFE4FF42450CF
:1036800000F0B6FA052000F026FE55214FF46850F0
:1036900000F036FB60214FF4585000F031FB03205E
:1036A000FEF7BEFB1248C1884FF4585000F028FBCB
:1036B0000F48438802880021084600F08BF80C4828
:1036C000808845F21051884205D1012251030948F2
:1036D000FDF78AF905E000224FF400510548FDF797
:1036E00083F94FF6FF70FEF78DFB0FB000BD0000B1
:1036F00010050024000C025808B50348008800900B
:10370000BDF8000008BD00000000026010B50446CE
:10371000204600F06DFA052000F0EAFDFFF7ECFF0F
:1037200010BD000030B504460D462948808848F297
:103730005251884214D12649888900F059FA201242
:1037400000F04AFAE0B200F047FA2149C88900F0D7
:103750004FFA281200F040FAE8B200F03DFA36E0E5
:103760001B48808845F2084188420AD11849888957
:10377000214600F0C5FA1649C889294600F0C0FA6A
:1037800025E01348808845F2105188421FD1104926
:10379000888900F02DFA201200F01EFA0C49898960
:1037A000491C88B200F024FAE0B200F015FA08498A
:1037B000C88900F01DFA281200F00EFA0449C989E0
:1037C000491C88B200F014FAE8B200F005FA30BDE6
:1037D000100500242DE9FC4F04460D4690469946FD
:1037E0000026B2460027B3460020019000908A4888
:1037F000808848F25251884232D1264604EB0800B4
:10380000401E1FFA80FA2F4605EB0900401E1FFAE2
:1038100080FB019600978049888900F0E9F9301211
:1038200000F0DAF9F0B200F0D7F94FEA2A2000F000
:10383000D3F90AF0FF0000F0CFF97749C88900F00A
:10384000D7F9381200F0C8F9F8B200F0C5F94FEA1C
:103850002B2000F0C1F90BF0FF0000F0BDF9D5E01E
:103860006D48808845F20841884273D16A48007AE1
:1038700003281CD168484088401BA0EB090086B291
:1038800065484088401B401E1FFA80FA6248008845
:10389000001BA0EB080087B25F480088001B401E99
:1038A0001FFA80FBCDF804A0CDF800B040E05A48E4
:1038B000007A04280ED12E4605EB0900401E1FFA9F
:1038C00080FA274604EB0800401E1FFA80FB019691
:1038D00000972DE05048007A012814D14E48008806
:1038E000001BA0EB080086B24B480088001B401E5E
:1038F0001FFA80FA2F4605EB09001FFA80FBCDF86E
:1039000004A0009714E0264604EB0800401E1FFAAE
:1039100080FA41484088401BA0EB090087B23E482E
:103920004088401B401E1FFA80FB0196CDF800B076
:103930003146502000F0E4F95146512000F0E0F902
:103940003946522000F0DCF95946532000F0D8F9EE
:103950005CE0FFE73048808845F21051884255D13D
:10396000264604EB0800401E1FFA80FA2F4605EB9E
:103970000900401E1FFA80FB01960097264988899E
:1039800000F036F9301200F027F923498989491CE3
:1039900088B200F02DF9F0B200F01EF91E498989B5
:1039A000891C88B200F024F94FEA2A2000F014F9AB
:1039B00019498989C91C88B200F01AF90AF0FF0078
:1039C00000F00AF91449C88900F012F9381200F021
:1039D00003F91149C989491C88B200F009F9F8B204
:1039E00000F0FAF80C49C989891C88B200F000F986
:1039F0004FEA2B2000F0F0F80749C989C91C88B2AA
:103A000000F0F6F80BF0FF0000F0E6F8DDE900103A
:103A1000FFF788FEBDE8FC8F100500242DE9F84F64
:103A200080460F4616461C46BB462046E31704EB6D
:103A30005373DB1021464FEAE47C04EB5C7C4FEAD5
:103A4000EC0CA4EBCC0CBCF1000F02D04FF0010C3D
:103A500001E04FF0000C6344224604EBD27C4FEAB5
:103A60006C0C03FB0CF3DBB20093A6F12000C6B292
:103A700000255EE00C2C07D106EB46002F4901EB38
:103A8000800010F805901BE0102C05D12C4800EBAD
:103A9000061010F8059013E0182C07D106EBC600AD
:103AA000284901EB800010F8059009E0202C05D191
:103AB000254800EBC61010F8059001E0BDE8F88F2E
:103AC0004FF0000A2FE009F0800030B11F4839465E
:103AD00002684046FEF738FB07E00A9828B91C4800
:103AE000394602684046FEF72FFB4FEA49604FEA2D
:103AF0001069781C87B217484088B84200DCDDE7BF
:103B0000A7EB0B00A0420AD15F4608F101001FFAA3
:103B100080F810480088404500DCCFE706E00AF155
:103B2000010000F0FF0ABAF1080FCCDB00BF681CEF
:103B3000C5B2009885429DDB00BFBFE7BA480008C8
:103B40002E4D00081E5300087A6000083000002443
:103B500034000024100500242DE9F84705460E46E0
:103B600090469946DDE9094705F0FF0A08EB050094
:103B70001FFA80F809EB06001FFA80F921E045459D
:103B800002DB5546301986B24E4500DB1FE004EBE0
:103B9000D47105EB61010F4A1288914202DD0025C4
:103BA000301986B2002000903A78234631462846E4
:103BB000FFF734FF204604EBD07105EB61018DB2B5
:103BC0007F1C38787E2802DC38782028D7DA00BFBE
:103BD000BDE8F8871005002401B5BDF8000000908D
:103BE000BDF800000149088008BD00000000026027
:103BF00001B5BDF800000090BDF800000149088043
:103C000008BD0000FEFF01602DE9F04106464FF6B9
:103C1000FF702B490860002410E02A4830F8147027
:103C20000146601C31F8108004F128018AB288B284
:103C300043463946FEF70EFA601C84B2B4F58B7F1A
:103C4000EBDD4FF478401E49086000241CE036F894
:103C50001400C0F30B0500EE105AB8EE400B9FEDB8
:103C60001A1B80EE012B9FED1A0B22EE000B9FED2D
:103C70001A1B80EE012BBCEEC20B10EE100A11498C
:103C800021F81400601C84B2B4F58C7FDFDB0024C3
:103C900010E00C4830F814700146601C31F81080B8
:103CA00004F128018AB288B243463946FEF7D2F9B8
:103CB000601C84B2B4F58B7FEBDDBDE8F0810000C1
:103CC00030000024940200240000000000FEAF40F9
:103CD000000000000088C3400000000000004940D0
:103CE00001490880704700000000026002484089D6
:103CF000024908807047000010050024FEFF0160A3
:103D0000024A1080921C118070470000FEFF016083
:103D100010B50020FCF7CEFB0120FCF7CBFB022006
:103D2000FCF7C8FB10BD1FB5012000220092CDE9B1
:103D300001200323122251060390002000F00CF80A
:103D4000012000210091019103231922CDE90210E5
:103D5000590700F001F81FBD2DE9FF5F04460D462D
:103D600016461F46DDE910ABDDE90E89FCF7B6FE0D
:103D700001208DF80000E0B28DF801000195F0B24D
:103D80008DF8080000208DF809008DF80A008DF8E4
:103D90000B708DF80C808DF80D908DF80EA08DF8BD
:103DA0000FB06846FCF76CFE0420FCF7ADFEBDE8E2
:103DB000FF9F00BFFEE770477047704710B5FCF7E4
:103DC0001FFE10BD10B504460420FDF797FD014805
:103DD000046010BD1800002400B59DB04C210AA855
:103DE000FCF78FFA202102A8FCF78BFA2A4800681A
:103DF00020F004002849086000BF002001902648F8
:103E00000C30006840F4404023490C3108600846FB
:103E1000006800F44040019000BF00BF00BF1E4892
:103E20000C30006800F40050B0F5005FF7D10120BD
:103E30000A9000040B900220139002211491052196
:103E40001591A021169102211791042118910221A8
:103E500019910C211A9100211B911C910AA8FDF7C0
:103E600043F908B100BFFEE73F2002900320039012
:103E70000020049008200590402006900790000143
:103E8000089040200990022102A8FCF7E3FE08B147
:103E900000BFFEE71DB000BD0C4802582048006876
:103EA00040F470001E4908601E48006840F00100A0
:103EB0001C49086000201B4910310860194800683F
:103EC0001949084017490860002016491831086050
:103ED000091D0860091D0860124928310860091D84
:103EE0000860091D0860091D0860091D0860091D9A
:103EF0000860091D0860091D08600A48006820F470
:103F000080200849086000200649603108600120CF
:103F100006490860C0060249803908607047000001
:103F200088ED00E0004402587FEDF6EA0881005178
:103F300010B56FF0010014490968086101201349A8
:103F40000880134800681349134A128821F81200A8
:103F500001200E49891E08800F480088401C0E4928
:103F6000088008460088B0F5917F0BD101200B49ED
:103F700008700020084908800348FDF717FD1D2040
:103F8000FCF7E4FD10BD0000680600241A08025882
:103F900010040258500000244000002400000024B7
:103FA00038B504460D4600BF1148006840F00200D5
:103FB0000F4908600846006800F00200009000BF4A
:103FC00000BF0C480C49086008464560002181602C
:103FD000C4600161FDF7C0FC032201211D20FCF734
:103FE000E7FD1D20FCF7D4FD0348FDF7D0FC38BDEC
:103FF000E8440258000400406806002410B500227E
:104000000288294B98420ED0B0F1804F0BD0274B3D
:10401000984208D0264B984205D0264B984202D0B1
:10402000254B984203D122F070024B681A431E4B75
:10403000984217D0B0F1804F14D01C4B984211D049
:104040001B4B98420ED01B4B98420BD01A4B9842F8
:1040500008D01A4B984205D0194B984202D0194B00
:10406000984203D122F44072CB681A4322F08003B5
:104070004C6943EA040202808B68C3620B880385A3
:10408000094B98420BD00C4B984208D00B4B9842EE
:1040900005D00B4B984202D00A4B984201D10B8AB3
:1040A00003860123436110BD00000140000400406D
:1040B00000080040000C00400004014000400140A6
:1040C000004401400048014070B50546AC6B00203B
:1040D000A4F86A00A4F862002046FDF784FC70BDD5
:1040E0000168096821F490710268116001688968AB
:1040F00021F0010102689160202180F87A10704758
:1041000010B504462068006820F04000216808606F
:10411000202084F879002046FDF702FE002010BD23
:104120002DE9F0410446B4F86C7094F87A00222826
:1041300033D12068858CA068B0F5805F09D12069F3
:1041400038B9666E05EA07003080606E801C6066D4
:1041500005E0F8B22840626E511C61661070B4F838
:104160006A00401E80B2A4F86A00A0B92068006806
:1041700020F49070216808602068806820F00100B9
:1041800021688860202084F87A002046FDF784FDAD
:104190000020BDE8F0810020FBE72068008B40F0A4
:1041A0000800216808830220F3E7014691F87900AE
:1041B000212839D1B1F86200C8B90868006800F058
:1041C000005030B10868806820F400000B689860E7
:1041D00005E00868006820F080000B681860086837
:1041E000006840F040000B68186000207047886845
:1041F000B0F5805F0BD1086948B9CA6D1088C0F36B
:1042000008000B681885C86D801CC86505E0CB6D7B
:10421000581CC86518780B681885B1F86200401EF4
:10422000A1F862000020E1E70220DFE770B500247A
:104230000F4D1048FDF7E2FB00BF03E0641CAC42E9
:1042400000D904E00B48FDF7CFFB2028F6D100BFD2
:10425000002403E0641CAC4200D906E001220649B8
:104260000448FDF7A9FC0028F4D100BF70BD000090
:10427000FFFF0100E80500243A00002400BFFEE72C
:1042800002480068C0F30220704700000CED00E017
:1042900010B5002804DB0A07130E054A135406E084
:1042A0000A07140E034A00F00F031B1FD45410BD5D
:1042B00000E400E018ED00E002E008C8121F08C1A9
:1042C000002AFAD170477047002001E001C1121F97
:1042D000002AFBD1704730B50446002504E04FF4B6
:1042E0007A7000F005F86D1CA542F8D330BD0000CF
:1042F00070B5034600224FF0E02675690D4E366812
:1043000003FB06F44FF0E026B16910E04FF0E02621
:10431000B06988420BD0884202D20E1A324402E0C1
:104320002E1A0E4432440146A24200D300E0EDE7CB
:1043300000BF70BD180000248AB04FF000080024B0
:104340002022C94902A8FBF7C3FFC84FFCF764FB52
:10435000FFF7E9FCFFF740FD4FF4C870FFF732FDAF
:10436000FFF7D6FCFDF7DFFCFDF7A2FFFBF7E6FF4A
:104370004FF6FF70FDF746FD0020BD490860BDA067
:1043800010210B462822CDE9001000211720FFF74D
:10439000E3FBB9A010210B462822CDE900102A2109
:1043A0000720FFF7D9FBB6A010210B462822CDE944
:1043B00000105C211720FFF7CFFBB2A010210B46A5
:1043C0002822CDE900108E210020FFF7C5FBAFA009
:1043D00010210B462822CDE90010B8210F20FFF74D
:1043E000BBFBC723272200211046FDF733FEC9235C
:1043F00040F23F1219460020FDF72CFEA4A0102128
:104400000B46C822CDE90010CA214C20FFF7A4FBBF
:10441000A5A010210B464FF49672CDE90010DC21C7
:104420001820FFF799FB1EE10020FDF78BFC0546E5
:10443000022D68D1072C01DA601C84B200208C495F
:104440000860082C5DD2DFE804F0040F1A25303B29
:1044500046518FA010210B46C822CDE90010CA2179
:104460004C20FFF779FB4DE098A010210B46C822A5
:10447000CDE90010CA214C20FFF76EFB42E099A065
:1044800010210B46C822CDE90010CA214C20FFF7AD
:1044900063FB37E099A010210B46C822CDE900103C
:1044A000CA214C20FFF758FB2CE09AA010210B46A4
:1044B000C822CDE90010CA214C20FFF74DFB21E0B6
:1044C0009AA010210B46C822CDE90010CA214C2029
:1044D000FFF742FB16E09BA010210B46C822CDE956
:1044E0000010CA214C20FFF737FB0BE09BA01021E6
:1044F0000B46C822CDE90010CA214C20FFF72CFB47
:1045000000E000BF6AE0012D68D1002C01DD601ED3
:1045100084B2002056490860082C5DD2DFE804F020
:10452000040F1A25303B465159A010210B46C822D2
:10453000CDE90010CA214C20FFF70EFB4DE063A02F
:1045400010210B46C822CDE90010CA214C20FFF7EC
:1045500003FB42E063A010210B46C822CDE9001006
:10456000CA214C20FFF7F8FA37E064A010210B466F
:10457000C822CDE90010CA214C20FFF7EDFA2CE04B
:1045800064A010210B46C822CDE90010CA214C209E
:10459000FFF7E2FA21E065A010210B46C822CDE921
:1045A0000010CA214C20FFF7D7FA16E065A01021B1
:1045B0000B46C822CDE90010CA214C20FFF7CCFAE7
:1045C0000BE066A010210B46C822CDE90010CA21DD
:1045D0004C20FFF7C1FA00E000BF00BF142E3DDB06
:1045E00002A850F824006349884219D14FF4917809
:1045F0001E4F00BF0120604908806048006827F80E
:10460000020B0120891E0880B8F10000A8F1010109
:104610001FFA81F8EED115481430FFF7F5FA18E0CB
:1046200002A850F824005649B1FBF0F0401E1FFAD2
:1046300080F949466320FFF7B3FC00BF514800787A
:104640000028FBD009481430FFF7DEFA00204D495E
:104650000870002620214C48FCF7C2F90520FFF71E
:104660003AFE701CC6B2DFE6BC47000850000024CA
:104670003000002435560000322E35560000000070
:10468000305600002D322E35560000002D355600D4
:1046900053616D706C696E675F526174653A372E55
:1046A00036374D487A0000004B4559313A202B539C
:1046B000616D706C696E67202020204B4559323A3D
:1046C000202D53616D706C696E67000053616D70D1
:1046D0006C696E675F526174653A202020314D48E5
:1046E0007A00000053616D706C696E675F5261748F
:1046F000653A203530304B487A00000053616D70C8
:104700006C696E675F526174653A203130304B4896
:104710007A00000053616D706C696E675F5261745E
:10472000653A202035304B487A00000053616D70A7
:104730006C696E675F526174653A202031304B4876
:104740007A00000053616D706C696E675F5261742E
:10475000653A202020354B487A00000053616D7087
:104760006C696E675F526174653A202020314B4856
:104770007A000000F00875001A0802581004025868
:1047800080841E0000000024001002580100020076
:104790000400060008000A000C0010002000400081
:1047A00080000001010002000400060008000A0069
:1047B0000C0010002000400080000001F00875008F
:1047C00040420F0020A10700A086010050C3000056
:1047D0001027000088130000E80300000100020019
:1047E0000400060008000A000C0010002000400031
:1047F00080000001010002000400060008000A0019
:104800000C001000200040008000000100000000AB
:104810000102030401020304060708090100020063
:104820000400060008000A000C00100020004000F0
:1048300080000001010002000400060008000A00D8
:104840000C0010002000400080000001100020003B
:104850004000010002000400060008000A000C00ED
:104860001000200040008000000101000200040050
:10487000060008000A000C00100020004000800024
:104880000001010002000400080001000200040011
:10489000060008000A000C00100020004000800004
:1048A0000001010002000400060008000A000C00DC
:1048B0001000200040008000000100000000000007
:1048C000000000000000000000003F400000000069
:1048D00000000000300040003000400000000900EF
:1048E0000BC03D000BC03D00090018C024407FE014
:1048F000224031800000180024C01B000D8032408F
:10490000018003801C4027401C80074000401000AD
:104910006000000000000000000000000000000037
:104920001F80204040200000402020401F800000C9
:104930000000090006001F800600090000000400B6
:1049400004003F800400040000000010006000002C
:104950000000000000000400040004000400040043
:1049600000000000004000000000000000000020E7
:1049700001C006003800400000001F802040204099
:1049800020401F800000000010403FC00040000099
:10499000000018C021402240244018400000108030
:1049A0002040244024401B80000002000D00110024
:1049B0003FC0014000003C8024402440244023802C
:1049C00000001F8024402440344003800000300059
:1049D000200027C03800200000001B802440244015
:1049E00024401B8000001C0022C0224022401F8067
:1049F000000000000000084000000000000000006F
:104A000000000460000000000000000004000A0034
:104A10001100208040400900090009000900090038
:104A2000000000004040208011000A00040018002F
:104A3000200023402400180000001F802040274051
:104A400029401F400000004007C039000F0001C08E
:104A5000004020403FC0244024401B8000001F80B5
:104A60002040204020403080000020403FC02040B7
:104A700020401F80000020403FC024402E4030C016
:104A8000000020403FC024402E00300000000F00F6
:104A90001080204022403380020020403FC00400AC
:104AA00004003FC02040204020403FC02040204024
:104AB00000000060202020203FC020002000204077
:104AC0003FC024400B0030C0204020403FC0204069
:104AD0000040004000C03FC03C0003C03C003FC05D
:104AE000000020403FC00C4023003FC020001F803A
:104AF0002040204020401F80000020403FC0244034
:104B00002400180000001F802140214020E01FA049
:104B1000000020403FC02440260019C0004018C0BB
:104B200024402440224031800000300020403FC01B
:104B300020403000000020003F80004000403F80C7
:104B4000200020003E0001C007003800200038008F
:104B500007C03C0007C038000000204039C00600F4
:104B600039C0204000002000384007C038402000F5
:104B70000000304021C02640384020C00000000026
:104B800000007FE0402040200000000070000C008A
:104B90000380004000000000402040207FE0000033
:104BA0000000000020004000200000000000001075
:104BB0000010001000100010001000000000400065
:104BC000000000000000000002800540054003C016
:104BD000004020003FC0044004400380000000006B
:104BE00003800440044006400000000003800440AD
:104BF00024403FC0004000000380054005400340C2
:104C00000000000004401FC0244024402000000099
:104C100002E0055005500650042020403FC00440EB
:104C2000040003C000400000044027C00040000012
:104C3000000000100010041027E0000000002040D9
:104C40003FC00140070004C00440204020403FC056
:104C500000400040000007C0040007C0040003C07B
:104C60000000044007C00440040003C000400000EE
:104C700003800440044003800000041007F0045047
:104C8000044003800000000003800440045007F04B
:104C90000010044007C002400400040000000000AF
:104CA00006400540054004C00000000004001F80CD
:104CB000044000400000040007800040044007C09A
:104CC00000400400070004C0018006000400060044
:104CD00001C0070001C006000000044006C001003A
:104CE00006C0044000000410071004E00180060024
:104CF00004000000044005C006400440000000001D
:104D0000000004007BE040200000000000000000E4
:104D1000FFF000000000000040207BE004000000E5
:104D20000000400080004000200020004000000003
:104D30000000000000000000000000000000000073
:104D4000000000001FCC000C00000000000000006C
:104D50000800300060000800300060000000022001
:104D600003FC1E20022003FC1E2002200000000085
:104D70000E1811043FFF10840C78000000000F0093
:104D800010840F3800C0077818840078000000787D
:104D90000F8410C411240E9800E400840008080059
:104DA000680070000000000000000000000000002B
:104DB0000000000007E01818200440020000000076
:104DC00040022004181807E0000000000000024024
:104DD000024001800FF0018002400240000000808C
:104DE000008000800FF8008000800080000000013B
:104DF000000D000E00000000000000000000000098
:104E00000080008000800080008000800080000022
:104E1000000C000C0000000000000000000000007A
:104E20000006001800600180060018002000000045
:104E300007F0080810041004080807F0000000003C
:104E4000080408041FFC0004000400000000000027
:104E50000E0C10141024104411840E0C00000000DD
:104E60000C1810041104110412880C7000000000CA
:104E700000E00320042408241FFC0024000000009C
:104E80001F98108411041104108810700000000095
:104E900007F0088811041104188800700000000051
:104EA0001C00100010FC13001C001000000000008B
:104EB0000E3811441084108411440E380000000094
:104EC0000700088C10441044088807F00000000018
:104ED00000000000030C030C0000000000000000B4
:104EE00000000001010600000000000000000000BA
:104EF0000080014002200410080810040000022075
:104F000002200220022002200220022000000000D5
:104F10001004080804100220014000800000000076
:104F20000E001200100C106C10800F00000003E047
:104F30000C1813E4142417C4082807D00000000438
:104F4000003C03C41C40074000E4001C00041004A3
:104F50001FFC1104110411040E880070000003E00E
:104F60000C1810041004100410081C100000100489
:104F70001FFC100410041004080807F000001004BF
:104F80001FFC1104110417C41004081800001004B9
:104F90001FFC1104110017C010000800000003E0FE
:104FA0000C181004100410441C7800400000100479
:104FB0001FFC10840080008010841FFC100400007F
:104FC000100410041FFC1004100400000000000373
:104FD0000001100110011FFE10001000000010045D
:104FE0001FFC110403801464181C1004000010043A
:104FF0001FFC1004000400040004000C0000100456
:105000001FFC1F0000FC1F001FFC10040000100408
:105010001FFC0C04030000E010181FFC100007F038
:105020000808100410041004080807F00000100419
:105030001FFC10841080108010800F00000007F00B
:10504000081810241024101C080A07F2000010048D
:105050001FFC1104110011C011300E0C00040000DF
:105060000E1C11041084108410441C380000180019
:10507000100010041FFC10041000180000001000A5
:105080001FF810040004000410041FF810001000A2
:105090001E0011E0001C007013801C0010001FC0D7
:1050A000103C00E01F0000E0103C1FC00000100496
:1050B000180C163401C001C01634180C100410006E
:1050C0001C00130400FC13041C0010000000080462
:1050D000101C1064108413041C041018000000003D
:1050E000000000007FFE400240024002000000007D
:1050F00030000C0003800060001C00030000000072
:105100004002400240027FFE00000000000000005C
:10511000000020004000400040002000000000018E
:105120000001000100010001000100010001000078
:1051300040004000200000000000000000000000CF
:105140000098012401440144014400FC00041000C3
:105150001FFC0088010401040088007000000000AA
:1051600000700088010401040104008800000000B0
:10517000007000880104010411081FFC00040000F5
:1051800000F8014401440144014400C8000000004B
:10519000010401040FFC11041104110018000000A7
:1051A00000D601290129012901C9010600001004C6
:1051B0001FFC008401000100010400FC0004000049
:1051C0000104190419FC00040004000000000000A0
:1051D000000300010101190119FE00000000100484
:1051E0001FFC0024004001B4010C01040000000079
:1051F000100410041FFC000400040000000001045F
:1052000001FC0104010001FC0104010000FC010497
:1052100001FC008401000100010400FC0004000006
:1052200000F8010401040104010400F80000010178
:1052300001FF0085010401040088007000000000E7
:105240000070008801040104010501FF0001010450
:10525000010401FC00840104010001800000000041
:1052600000CC012401240124012401980000000045
:105270000100010007F80104010400000000010022
:1052800001F8000400040004010801FC000401000E
:1052900001800170000C001001600180010001F02C
:1052A000010C003001C00030010C01F001000000D1
:1052B0000104018C00740170018C010400000101E3
:1052C00001810171000E00180160018001000000E1
:1052D0000184010C013401440184010C0000000030
:1052E00000000000000001003EFC400240020000FF
:1052F000000000000000FFFF0000000000000000B0
:10530000400240023EFC01000000000000000000DE
:10531000600080008000400040002000200000006D
:10532000000000000000000000000000000000007D
:10533000000000000000000000000000000000006D
:10534000000000000000000000000000000000005D
:10535000000F80380FFE380F80380000000000007A
:105360000000000000000000000000000100000636
:1053700000000C00003800003100000600000C00A6
:1053800000380000300000000000000000006180D4
:105390000067F807F980006180006180006180008B
:1053A00061800067F807F98000618000000000005C
:1053B0000000000001C0E003E0F006300804180817
:1053C0001FFFFE040E080787F00381E000000000C5
:1053D000000001F000060C00040408060C7001F93E
:1053E000C0000E00003BE000EC18070808040C1891
:1053F0000003E00000000001E00007F003F81804DB
:105400001C0804170807E1D003C0E00023B0003CEB
:10541000080020080000100000000000000100004B
:105420003100003200001C000000000000000000FD
:10543000000000000000000000000000000000006C
:1054400000000000000000000000000000007F00DD
:1054500001FFC00780F00C001810000420000200BB
:1054600000000000002000021000040C001807805B
:10547000F001FFC0007F00000000000000000000FD
:105480000000000000000000000042000066000074
:105490006600003C0000180003FFC0001800003C3C
:1054A00000006600006600004200000000000800E6
:1054B00000080000080000080000080001FFC0000C
:1054C00008000008000008000008000008000000B4
:1054D0000000000100003100003200001C0000004C
:1054E00000000000000000000000000000000000BC
:1054F000000000000000080000080000080000088C
:105500000000080000080000080000080000080073
:10551000000800000000000000000000000038004B
:10552000003800003800000000000000000000000B
:105530000000000000000000000000000000000665
:1055400000001C000070000180000E000038000008
:10555000C0000700001C0000300000000000000038
:1055600000007F8001FFE00380700600180400083F
:1055700004000806001803807001FFE0007F80002F
:105580000000000000000000010008010008010008
:105590000803FFF807FFF8000008000008000008F3
:1055A00000000000000000000001C03802C05804E4
:1055B0000098040118040218040418061C1803F8C3
:1055C0001801E0F800000000000000000001C0E049
:1055D00003C0F004000804080804080806180803BB
:1055E000F41801E7F00001E00000000000000000F6
:1055F00000000300000D00001100006100008108A0
:1056000003010807FFF80FFFF80001080001080078
:1056100000000000000000E007FCD00608080610AB
:1056200008061008061008061838060FF00607C00E
:10563000000000000000000000003F8001FFE003C8
:105640008430020818041008041008041008071811
:1056500010030FF00007C000000000000000000071
:1056600003C0000700000600000600F80607F80661
:10567000180006E00007000006000000000000001F
:105680000001E1E003F7F0063410041808041808DC
:10569000040C08040C0806161803F3F001C1E0001E
:1056A000000000000000F80003FC3003063804028C
:1056B000080402080402080404100308F001FFC0F3
:1056C000007F00000000000000000000000000005B
:1056D00000000000000070380070380070380000D2
:1056E00000000000000000000000000000000000BA
:1056F00000000000000000000000301A00301C0014
:105700000000000000000000000000000000000099
:10571000000000000008000014000022000041000A
:1057200000808001004002002004001008000800F2
:1057300000000000000021000021000021000021E5
:1057400000002100002100002100002100002100B4
:105750000021000000000000000000000800080414
:105760000010020020010040008080004100002263
:105770000000140000080000000000000003C0004A
:1057800004C000040000080038080F380808380872
:1057900010000C300007E00003C000000000000013
:1057A00000003F8000FFE0038070020F1006708849
:1057B00004C088048308047F8802C090030120008D
:1057C000FE400000080000180001F8003E0801C279
:1057D0000007020007E20000FE00001FC80001F8F9
:1057E00000003800000804000807FFF807FFF8046D
:1057F000080804080804080804080806180803F440
:105800001801E7F00001E0000000000000003F8008
:1058100001FFE0038070020018040008040008047F
:1058200000080400100600200780C00000000400EB
:105830000807FFF807FFF804000804000804000840
:1058400004001802001003807001FFE0007F800058
:10585000000004000807FFF807FFF8040808040820
:1058600008040808040808043E0804000806001894
:1058700001006000000004000807FFF807FFF804BB
:105880000808040800040800040800043E0006009C
:1058900000060000018000000000000000003F80C2
:1058A00001FFE003807006001804000804020804E9
:1058B00002080203F00783F0000200000200040067
:1058C0000807FFF807FFF8040808000800000800B0
:1058D00000080000080004080807FFF807FFF804A4
:1058E0000008000000000000040008040008040094
:1058F0000807FFF807FFF804000804000804000880
:10590000000000000000000000000006000007008A
:10591000000104000104000104000307FFFE07FF6B
:10592000FC04000004000004000004000807FFF865
:1059300007FFF8040C08001800003E0004C78005AB
:1059400003C80600F804003804001800000804002A
:105950000807FFF807FFF804000800000800000827
:1059600000000800000800000800001800006000A7
:10597000000004000807FFF807800807FC00007F0C
:10598000C00003F80007C000780007800807FFF890
:1059900007FFF804000804000807FFF807000803E1
:1059A000C00000E000003800001E000007000001F9
:1059B000C00400F007FFF8040000000000007F8032
:1059C00001FFE003807006001804000804000806C8
:1059D000001803003001FFE0007F80000000040099
:1059E0000807FFF807FFF804040804040004040093
:1059F000040400040400060C0003F80001F0000099
:105A00000000000000007F8001FFE00380700600BE
:105A1000880400880400C806003C03003E01FFE63D
:105A2000007F8400000004000807FFF807FFF80467
:105A30000808040800040C00040F00040BC0061042
:105A4000F003F03801E00800000800000001E0F871
:105A500003F030063010041808041808040C080479
:105A60000C080206180207F00781E0000000018020
:105A70000006000004000004000004000807FFF80E
:105A800007FFF804000804000004000006000001FD
:105A9000800004000007FFE007FFF004001800008A
:105AA00008000008000008000008000008040010BA
:105AB00007FFE004000004000006000007E0000704
:105AC000FE00041FE00001F80000380001E0043E81
:105AD0000007C00006000004000004000007E0000A
