:020000040800F2
:10000000700B0020493A0008ED060008EF060008D2
:10001000F3060008F7060008FB06000800000000D1
:10002000000000000000000000000000FF060008C3
:10003000010700080000000003070008050700088A
:10004000633A0008633A0008633A0008633A00081C
:10005000633A0008633A0008633A0008633A00080C
:10006000633A0008633A0008633A0008633A0008FC
:10007000633A0008633A0008633A0008633A0008EC
:10008000633A0008633A0008633A0008633A0008DC
:10009000633A0008633A0008633A0008633A0008CC
:1000A000633A0008633A0008633A0008633A0008BC
:1000B000633A0008E51B0008633A0008633A000849
:1000C000633A0008633A0008633A0008633A00089C
:1000D000633A0008633A0008633A0008633A00088C
:1000E000633A0008633A0008633A0008633A00087C
:1000F000633A0008633A0008633A0008633A00086C
:10010000633A0008633A0008633A0008633A00085B
:10011000633A0008633A0008633A0008633A00084B
:10012000633A0008633A0008633A0008633A00083B
:1001300000F002F800F047F80AA090E8000C8244B2
:100140008344AAF10107DA4501D100F03CF8AFF28F
:10015000090EBAE80F0013F0010F18BFFB1A43F0A5
:1001600001031847E090000000910000103A24BFFE
:1001700078C878C1FAD8520724BF30C830C144BF0C
:1001800004680C607047000000230024002500264E
:10019000103A28BF78C1FBD8520728BF30C148BFEA
:1001A0000B60704703681B0A28BF41F08001642977
:1001B00003F0A684E42903F0DF84002070471FB514
:1001C0001FBD10B510BD03F0B6FE1146FFF7F7FFD7
:1001D00000F09DF803F0D4FE03B4FFF7F2FF03BC78
:1001E00003F0DCFE2DE9F04F87B0814600242EE0BD
:1001F000F84830F814500146601C31F81060B542E0
:100200000CDDA81B1FFA80FB04F1280188B24FF611
:10021000FF735A46314601F030FC16E0B5420CDA65
:10022000701B1FFA80FB04F1280188B24FF6FF73A0
:100230005A46294601F021FC07E004F1280188B262
:100240004FF6FF72294601F02BFB601C84B2B4F517
:100250008B7FCDDD002420E039F81400C0F30B0AB9
:10026000504604F02EF80022DB4BCDE9000103F0EC
:10027000A3FE0022D94BCDE9020104F035F800229B
:10028000D74BCDE9040103F097FE074603F0ECFFDE
:10029000D04921F81400601C84B2B4F58C7FDBDBFC
:1002A00000242EE0CB4830F814500146601C31F891
:1002B0001060B5420CDDA81B1FFA80FB04F1280179
:1002C00088B24FF478435A46314601F0D6FB16E027
:1002D000B5420CDA701B1FFA80FB04F1280188B2CA
:1002E0004FF478435A46294601F0C7FB07E004F172
:1002F000280188B24FF47842294601F0D1FA601CF7
:1003000084B2B4F58B7FCDDD07B0BDE8F08F88B047
:100310004FF00008002600241C22B24901A803F077
:1003200019FDB14F00F0F0F900F00CFA00F03DFDBE
:1003300001F0F6FB4FF6FF7000F095FFABA04FF613
:10034000FF73002211460090172001F0EAFAA8A0DE
:100350004FF6FF7300222A210090072001F0E1FAF6
:10036000A5A04FF6FF7300225C210090172001F03A
:10037000D8FAA2A04FF6FF7300228E2100901046FB
:1003800001F0CFFA9FA04FF6FF730022B821009032
:100390000F2001F0C6FA9CA04FF6FF730022CA217D
:1003A00000904C2001F0BDFA9DA04FF6FF73002293
:1003B000DC210090182001F0B4FA0023C82219466D
:1003C000272001F05AFB00234FF4A072C9211846E0
:1003D00001F01AFBFCE000F0C8F90546022D53D1EC
:1003E000062C01DA601C84B2072C4BD2DFE804F043
:1003F000040E18222C36400083A04FF6FF73002213
:10040000CA2100904C2001F08CFA3CE08DA04FF600
:10041000FF730022CA2100904C2001F082FA32E0E2
:100420008EA04FF6FF730022CA2100904C2001F0ED
:1004300078FA28E08FA04FF6FF730022CA210090BF
:100440004C2001F06EFA1EE090A04FF6FF730022E0
:10045000CA2100904C2001F064FA14E091A04FF6FC
:10046000FF730022CA2100904C2001F05AFA0AE0E2
:1004700092A04FF6FF730022CA2100904C2001F099
:1004800050FA00E000BF55E0012D53D1002C01DDF2
:10049000601E84B2072C4BD2DFE804F0040E182251
:1004A0002C36400058A04FF6FF730022CA2100905E
:1004B0004C2001F036FA3CE062A04FF6FF730022B8
:1004C000CA2100904C2001F02CFA32E063A04FF6D4
:1004D000FF730022CA2100904C2001F022FA28E08C
:1004E00064A04FF6FF730022CA2100904C2001F057
:1004F00018FA1EE065A04FF6FF730022CA21009093
:100500004C2001F00EFA14E066A04FF6FF730022B3
:10051000CA2100904C2001F004FA0AE067A04FF6CF
:10052000FF730022CA2100904C2001F0FAF900E08C
:1005300000BF00BF142E46DB01A850F82400654917
:10054000884219D14FF49178274F00BF01206249AA
:1005500008606248806827F8020B0120091F0860C4
:10056000B8F10000A8F101011FFA81F8EED11E4890
:100570001430FFF737FE18E001A850F8240058495E
:10058000B1FBF0F0401E1FFA80F949468F2001F0C0
:100590001FFB00BF534800780028FBD012481430DE
:1005A000FFF720FE00204F490870002610214E481A
:1005B00001F098FEC0F1010000F0FF094A46102149
:1005C000494801F0A0FE052000F076F9701CC6B283
:1005D00001E70000C002002000FEAF400088C340D9
:1005E00000004940E44400087C000020355600002B
:1005F000322E355600000000305600002D322E35C8
:10060000560000002D35560053616D706C696E67A1
:100610005F526174653A20322E334D487A000000F3
:100620004B4559313A202B53616D706C696E6720D0
:100630002020204B4559323A202D53616D706C6952
:100640006E67000053616D706C696E675F52617414
:10065000653A203235304B487A00000053616D70A6
:100660006C696E675F526174653A203130304B4877
:100670007A00000053616D706C696E675F5261743F
:10068000653A202035304B487A00000053616D7088
:100690006C696E675F526174653A202031304B4857
:1006A0007A00000053616D706C696E675F5261740F
:1006B000653A202020354B487A00000053616D7068
:1006C0006C696E675F526174653A202020314B4837
:1006D0007A00000060182300140801400010014057
:1006E00020A107000000002000180140704700BF53
:1006F000FEE700BFFEE700BFFEE700BFFEE7704772
:10070000704770477047000008B50121402001F094
:1007100085FC3020ADF8000003208DF80200102089
:100720008DF803006946064801F03CFD102104489D
:1007300001F0E5FD2021024801F0E1FD08BD0000C7
:100740000018014008B50121402001F067FC0F208E
:10075000ADF8000048208DF8030003208DF802005A
:1007600069462B4801F01EFD08BD10B5002401218B
:10077000274801F0AAFD78B10221254801F0A5FD26
:1007800050B10421224801F0A0FD28B108212048E1
:1007900001F09BFD002837D10A2000F08DF80121DF
:1007A0001B4801F092FD38B9012400BF012118480F
:1007B00001F08BFD0028F9D00221154801F085FDDC
:1007C00038B9022400BF0221114801F07EFD002843
:1007D000F9D004210E4801F078FD38B9032400BF98
:1007E00004210B4801F071FD0028F9D008210848C8
:1007F00001F06BFD48B9042400BF0821044801F052
:1008000064FD0028F9D000E00024204610BD00005F
:1008100000180140704700BF411EC9B2081EFBD13D
:100820007047002100BF082100BF4A1ED2B2111E2E
:10083000FBD1421ED2B2101EF5D17047002100BF7D
:100840000F2100BF4A1ED2B2111EFBD1421E92B22E
:10085000101EF5D1704700BF072100BF0B2200BF5B
:10086000531E9BB21A1EFBD14B1E9BB2191EF5D113
:10087000431EDBB2181EEFD1704700BF422100BFFC
:100880001E2200BF531EDBB21A1EFBD14B1EDBB271
:10089000191EF5D1431EDBB2181EEFD1704765203B
:1008A00000BF582100BF4A1E92B2111EFBD1421E4A
:1008B00092B2101EF5D1704700BF772100BF4322CE
:1008C00000BF531E9BB21A1EFBD14B1E9BB2191EBA
:1008D000F5D1431EDBB2181EEFD1704700BF40F2C6
:1008E000712100BF3F2200BF531E9BB21A1EFBD1D5
:1008F0004B1E9BB2191EF5D1431EDBB2181EEED162
:10090000704700BF4FF47A7100BF40F2012200BF70
:10091000531E9BB21A1EFBD14B1E9BB2191EF4D163
:10092000431EDBB2181EEDD1704701B502E00098FE
:10093000401E009000980028F9D108BD08B501219B
:10094000602001F06BFB4CF6B370ADF800000320A3
:100950008DF8020018208DF803006946F74801F071
:1009600021FC4FF68070ADF8000003208DF80200E6
:1009700018208DF803006946F14801F013FC4FF48C
:100980004050ADF8000003208DF8020010208DF8D3
:1009900003006946E94801F005FC4FF40051E748BF
:1009A00001F0ADFC08BD00B597B00121080201F0CF
:1009B00028FB0121084601F031FB022001900020B4
:1009C00002900520039000200490059006904FF0BF
:1009D0008050079000200890099008200A9010206D
:1009E0000B9000200C900E900F9010904FF48050C0
:1009F0001190002012901390149001A81590169059
:100A000008A802F077FC0121002002F0DBFD17B0FE
:100A100000BDCC4908807047CA49891C08807047CE
:100A2000C849891C08807047C648801C00887047E8
:100A3000C44A1080921C118070470146C148018051
:100A4000801C00887047C0484089BE4908807047B4
:100A5000BD490871032826D14FF4A071BA4A11800C
:100A6000F02151801146098948F25252914209D130
:100A70002C21B54A51812A2191812B21D1816021DC
:100A8000D18088E0B049098945F208429142F8D105
:100A90002221AD4A5181202191812121D18141F230
:100AA0000801D18077E0042826D14FF4A071A64A2E
:100AB0001180F02151801146098948F25252914229
:100AC00009D12C21A04A51812A2191812B21D18148
:100AD000A021D1805FE09C49098945F208429142FA
:100AE00059D12221984A5181202191812121D181FE
:100AF00041F23801D1804EE0012826D1F021924AFE
:100B000011804FF4A07151801146098948F2525268
:100B1000914209D12C218C4A51812A2191812B218A
:100B2000D181C021D18036E08749098945F2084248
:100B3000914230D12221844A518120219181212169
:100B4000D1814FF48151D18025E0F0217E4A11807E
:100B50004FF4A07151801146098948F252529142D6
:100B600009D12C21784A51812A2191812B21D181CF
:100B70000021D1800FE07449098945F20842914271
:100B800009D12221704A5181202191812121D181D5
:100B900041F21001D18070476C4A10606C4A1160BC
:100BA000704710B503460C466748008948F2525119
:100BB000884215D164498989C8B2FFF72AFF181203
:100BC000FFF72AFFD8B2FFF727FF5F49C989C8B2EC
:100BD000FFF71FFF2012FFF71FFFE0B2FFF71CFF18
:100BE0005948008945F2084188420BD15649898904
:100BF000C8B21946FFF71CFF5349C989C8B221463C
:100C0000FFF716FF10BD2DE9FC5F04460D46904628
:100C100099460026B2460027B34600200190009076
:100C20004948008948F25251884234D1264604EBA3
:100C30000900401E1FFA80FA2F4605EB0800401EEF
:100C40001FFA80FB019600973F498989C8B2FFF7D8
:100C5000E0FE3012FFF7E0FEF0B2FFF7DDFE4FEAF4
:100C60002A20FFF7D9FE0AF0FF00FFF7D5FE36492C
:100C7000C989C8B2FFF7CDFE3812FFF7CDFEF8B232
:100C8000FFF7CAFE4FEA2B20FFF7C6FE0BF0FF006E
:100C9000FFF7C2FE83E02C48008945F208418842F4
:100CA0007DD12948007903281CD127484088401B62
:100CB000A0EB080086B224484088401B401E1FFA63
:100CC00080FA21480088001BA0EB090087B21E486B
:100CD0000088001B401E1FFA80FBCDF804A0CDF851
:100CE00000B04CE01848007904280ED12E4605EBE0
:100CF0000800401E1FFA80FA274604EB0900401E38
:100D00001FFA80FB0196009739E00F48007901280F
:100D100020D10D480088001BA0EB090086B20A48CC
:100D20000088001B401E1FFA80FA2F4605EB0800C2
:100D30001FFA80FBCDF804A0009720E000140140CA
:100D400000180140FEFF0160F00400204400002074
:100D500048000020264604EB0900401E1FFA80FAD6
:100D6000FE484088401BA0EB080087B2FB48408843
:100D7000401B401E1FFA80FB0196CDF800B03146A3
:100D80005020FFF755FE51465120FFF751FE3946DE
:100D90005220FFF74DFE59465320FFF749FEDDE98B
:100DA0000010FFF7FEFEBDE8FC9F10B5FFF7C6FD83
:100DB000FFF7F9FD0A20FFF77FFD4FF48051E84867
:100DC00001F09FFA0A20FFF777FD4FF48051E448C5
:100DD00001F095FA0A20FFF76FFD0420FFF72DFEC2
:100DE000FFF722FEDD490881FFF71EFEDB4908817F
:100DF000084600894FF6FF7101EA0020D7490881B3
:100E0000FFF712FED54909890843D44908810846ED
:100E1000008948F25251884204D00020FFF70DFEAD
:100E2000CE490881CD48008948F2525188427CD190
:100E30001120FFF7EEFD7820FFF73EFD3620FFF78B
:100E4000E8FD0020FFF7E8FD3A20FFF7E2FD05206E
:100E5000FFF7E2FDB220FFF7DCFD0C20FFF7DCFD21
:100E60000C20FFF7D9FD0020FFF7D6FD3320FFF758
:100E7000D3FD3320FFF7D0FDB720FFF7CAFD3520A3
:100E8000FFF7CAFDBB20FFF7C4FD2820FFF7C4FD14
:100E9000C020FFF7BEFD2C20FFF7BEFDC220FFF7EC
:100EA000B8FD0120FFF7B8FDC320FFF7B2FD0B200E
:100EB000FFF7B2FDC420FFF7ACFD2020FFF7ACFD2B
:100EC000C620FFF7A6FD0F20FFF7A6FDD020FFF7F5
:100ED000A0FDA420FFF7A0FDA120FFF79DFDE020CD
:100EE000FFF797FDD020FFF797FD0120FFF794FD56
:100EF0000820FFF791FD0F20FFF78EFD1120FFF76F
:100F00008BFD2A20FFF788FD3620FFF785FD552051
:100F1000FFF782FD4420FFF77FFD3A20FFF77CFDBD
:100F20000B20FFF779FD062000E04CE0FFF774FD91
:100F30001120FFF771FD2020FFF76EFDE120FFF784
:100F400068FDD020FFF768FD0220FFF765FD072050
:100F5000FFF762FD0A20FFF75FFD0B20FFF75CFD46
:100F60001820FFF759FD3420FFF756FD4320FFF707
:100F700053FD4A20FFF750FD2B20FFF74DFD1B20AE
:100F8000FFF74AFD1C20FFF747FD2220FFF744FD35
:100F90001F20FFF741FD2920FFF73BFD2C20FFF725
:100FA00038FD0320FFF754FD3620FFF732FD6B4973
:100FB000C888FFF731FD6948038842880021084648
:100FC000FFF721FE28E16548008945F20841884283
:100FD000F8D14FF480710120FFF72AFD4FF4E06152
:100FE0000220FFF725FD41F230010320FFF720FD2D
:100FF00000210420FFF71CFD40F202210820FFF72A
:1010000017FD00210920FFF713FD00210A20FFF73B
:101010000FFD00210C20FFF70BFD00210D20FFF735
:1010200007FD00210F20FFF703FD00211020FFF72F
:10103000FFFC00211120FFF7FBFC00211220FFF72D
:10104000F7FC00211320FFF7F3FCC820FFF734FC66
:1010500007211120FFF7ECFC3220FFF72DFC41F2B5
:10106000B0211020FFF7E4FC3220FFF725FC40F20E
:10107000BD111220FFF7DCFC3220FFF71DFC4FF4FE
:10108000A0511320FFF7D4FC0E212920FFF7D0FC3C
:101090003220FFF711FC00212020FFF7C9FC40F2AD
:1010A0003F112120FFF7C4FC40F60D313020FFF73F
:1010B000BFFC41F623113120FFF7BAFC41F626416F
:1010C0003220FFF7B5FC42F21C613320FFF7B0FC81
:1010D00042F219413420FFF7ABFC40F60B513520AA
:1010E000FFF7A6FC41F206013620FFF7A1FC4FF402
:1010F000C2613720FFF79CFC40F206713820FFF7F1
:1011000097FC4FF441713920FFF792FC40F60561DE
:101110003A20FFF78DFC40F601613B20FFF788FC89
:101120004FF487713C20FFF783FC40F20E513D20C5
:10113000FFF77EFC40F203413E20FFF779FC40F2CE
:1011400007613F20FFF774FC00215020FFF770FC7F
:10115000EF215120FFF76CFC002103E0F004002098
:10116000001401405220FFF763FC40F23F1153206E
:10117000FFF75EFC4FF427416020FFF759FC012187
:101180006120FFF755FC00216A20FFF751FC002188
:101190008020FFF74DFC00218120FFF749FC002152
:1011A0008220FFF745FC00218320FFF741FC00214E
:1011B0008420FFF73DFC00218520FFF739FC10213A
:1011C0009020FFF735FC00219220FFF731FC03212E
:1011D0009320FFF72DFC4FF488719520FFF728FC32
:1011E00000219720FFF724FC00219820FFF720FC26
:1011F0000320FFF72DFCFB48C1880320FFF718FCF4
:101200004FF489710720FFF713FCF64803884288E2
:1012100000210846FFF7F7FCF349F448FFF7BCFC50
:101220004FF40051F24801F06CF810BD03B5BDF861
:101230000000F0490880BDF80400EF4908800CBDAB
:10124000EC4A12880280EC4A12880A80704701B585
:10125000BDF80000E749088008BD01B5BDF80000F1
:10126000E549088008BD70B504460025DD480388BF
:10127000428800210846FFF7C6FCFFF7E4FB00BFE9
:1012800002E0DE4804806D1CD6480088D5494988B4
:101290004843A842F5D870BD2DE9F0470746884677
:1012A000164600250024D64800688088C01DC0F37B
:1012B000C709D34800688388D1480068C28841467E
:1012C0003846FFF7A0FCFFF7BEFB00BF1CE0002480
:1012D00014E005FB09F000EBD400305C04F00702D9
:1012E00080211141084020B9C3480088FFF798FBCE
:1012F00003E0C0480088FFF793FB641CC048006807
:101300008088A042E5D86D1CBD480068C088A8420E
:10131000DDD8B4480388428800210846FFF773FCF3
:10132000BDE8F0872DE9F04105460E461446A4F1CC
:101330002001B34A1268D2885143B14A1268928898
:10134000D01DC21700EB5272D210AD4B1B681B6848
:1013500001FB02373A4631462846FFF79DFFBDE8BC
:10136000F08130B50246A74800680489002120E0DA
:10137000A4480068006801EB811510F81500157885
:10138000A84214D19F480068006801EB811500EB6A
:10139000450040785578A84209D19A48006800680D
:1013A00001EB811500EB4500831C184630BD481C3D
:1013B00081B2A142DCDB0020F8E72DE9F0470746C7
:1013C00088461546002600248E4800688088C01D87
:1013D000C0F3C7098B48006883888A480068C288C0
:1013E00041463846FFF70FFCFFF72DFB00BF28E012
:1013F00000241FE0C5B106FB09F101EBE401695CC3
:10140000E21704EB5272D210A4EBC20380221A41FD
:10141000114021B978480088FFF702FB08E07548C1
:101420000088FFF7FDFA03E073480088FFF7F8FA39
:10143000601C84B2734800688088A042DADC701CAB
:1014400086B270480068C088B042D1DC6548038825
:10145000428800210846FFF7D6FBBDE8F0872DE95A
:10146000F04105460E46144600272046FFF779FF57
:1014700007463A4631462846FFF79FFFBDE8F08110
:101480002DE9F04106460F4614463546B84629E098
:10149000544800885A4909688988401AA8421ADBCA
:1014A000207880280BDA227841462846FFF73AFF59
:1014B000534800688088284485B2641C12E02246A4
:1014C00041462846FFF7CBFF4E48006880882844F5
:1014D00085B2A41C06E0002549480068C088404445
:1014E0001FFA80F820780028D2D1BDE8F08110B52D
:1014F0004FF4A073F022591EEF20FFF784FB41F256
:1015000018010320FFF794FA10BD2DE9F0410646BB
:101510000F46144600252346012239463046FFF780
:1015200072FBFFF790FA00BF04E032480088FFF733
:1015300077FA6D1CA542F8D32A4803884288002117
:101540000846FFF760FBBDE8F0812DE9F041064653
:101550000F46144600252346012239463046FFF740
:1015600052FBFFF770FA00BF10E00320B5FBF0F16B
:1015700000FB1150022804D11F480088FFF750FAE1
:1015800003E01C480088FFF74BFA6D1CA542ECD322
:1015900014480388428800210846FFF734FBBDE861
:1015A000F0812DE9F04106460F461446002501233F
:1015B000224639463046FFF726FBFFF744FA00BFC4
:1015C00004E00C480088FFF72BFA6D1CA542F8D305
:1015D00004480388428800210846FFF714FBBDE851
:1015E000F0810000F00400202C00002014000020F6
:1015F000001401404C0000204E000020000002605A
:1016000044000020480000202DE9F04106460F4626
:101610001546002401232A4639463046FFF7F3FADF
:10162000FFF711FA00BF10E00320B4FBF0F100FB5C
:101630001140022804D1FD480088FFF7F1F903E0CA
:10164000FB480088FFF7ECF9641CAC42ECD3F94886
:101650000388428800210846FFF7D5FABDE8F081EB
:101660002DE9F04105460E4617461C4622463146F6
:101670002846FFF74AFFF019401E81B2224628464D
:10168000FFF743FF3A4631462846FFF78AFF2919FC
:10169000491E88B23A463146FFF783FFBDE8F08124
:1016A0002DE9F0478046894616461F46DDF820A002
:1016B000002400253B46324649464046FFF7A3FA40
:1016C000FFF7C1F900BF14E000250FE01AF804008D
:1016D0000121A940084020B9D4480088FFF7A0F9AB
:1016E00003E0D3480088FFF79BF96D1C082DEDD36C
:1016F000641C06FB07F0B4EBE00FE5D3CD4803888C
:10170000428800210846FFF77EFABDE8F0872DE900
:10171000F0478046894615461E46089F00243346FA
:101720002A4649464046FFF76EFAFFF78CF900BF9C
:101730000BE017F81410012202EB4402BA5C01EB33
:10174000022188B2FFF76CF9641C05FB06F0A04289
:10175000EFD8B8480388428800210846FFF753FABB
:10176000BDE8F0872DE9F0410746884614461D463E
:1017700000262B46224641463846FFF744FAFFF73B
:1017800062F900BF04E0A9480088FFF749F9761C18
:1017900004FB05F0B042F6D8A64803884288002131
:1017A0000846FFF730FABDE8F08110B5A14800897E
:1017B00048F25251884238D000211020FFF738F902
:1017C00000211120FFF734F900211220FFF730F932
:1017D00000211320FFF72CF9C820FFF76DF841F224
:1017E000B0711020FFF724F940F237111120FFF7F4
:1017F0001FF93220FFF760F840F239111220FFF78D
:1018000017F93220FFF758F84FF4E8511320FFF78B
:101810000FF913212920FFF70BF93220FFF74CF8BD
:1018200040F273110720FFF703F910BD00B581489E
:10183000008948F25251884203D12920FFF7E9F884
:1018400004E040F273110720FFF7F2F800BD00B585
:101850007848008948F25251884203D12820FFF786
:10186000D8F803E000210720FFF7E2F800BD70B5CB
:1018700004460D46002C0BDB6E480088401EA0423B
:1018800006DB002D04DB6B484088401EA84200DACE
:1018900070BDA9B2A0B20122FFF737FE00BFF7E783
:1018A0002DE9F04104460D4616462746A8466148F4
:1018B000008945F20841884228D15E480079032812
:1018C0000BD15C484088401B401E87B259480088B5
:1018D000001B401E1FFA80F818E0564800790428C3
:1018E00002D12F46A04611E052480079012806D1C6
:1018F00050480088001B401E87B2A84606E02746D5
:101900004C484088401B401E1FFA80F8414638462C
:10191000FFF747F9FFF797F83046FFF781F8BDE882
:10192000F0812DE9F04106460F4614461D46DDF8CC
:10193000188029462046FFF779FC42463946304652
:10194000FFF79EFDBDE8F0812DE9F04106460F4608
:1019500014461D46DDF8188029462046FFF766FC30
:1019600035493648FFF718F9424639463046FFF701
:1019700087FD33493148FFF70FF9BDE8F0812DE9C4
:10198000FC4104460D4616461F46DDF820804246BF
:101990002CA101A802F078F801A83B46324629465E
:1019A00000902046FFF7BDFFBDE8FC812DE9FE4316
:1019B00004460D4616461F46DDF82880424622A101
:1019C00001A802F061F801A83B4632462946009082
:1019D0002046FFF7A6FFBDE8FE832DE9FF4105463F
:1019E0000E46174698460A9C2246002317A101A8D6
:1019F00002F04AF801A843463A463146009028468C
:101A0000FFF78FFFBDE8FF812DE9F04105460E4647
:101A100017461C46054801882046FFF707FC3A4652
:101A200031462846FFF771FDBDE8F0814E000020E9
:101A30004C000020F004002038000020140000209A
:101A40002C00002025336400253564002531306CDE
:101A50006C6400002DE9F04105460E4617461C4611
:101A6000DDF8188041462046FFF7E0FB3A46314654
:101A70002846FFF76AFDBDE8F0812DE9F0410546F3
:101A80000E4617461C46244801882046FFF7CEFB29
:101A90003A4631462846FFF784FDBDE8F0812DE93E
:101AA000F04105460E4617461C46DDF818804146B3
:101AB0002046FFF7BBFB3A4631462846FFF7A4FD18
:101AC000BDE8F0812DE9F04104460D4616461F465B
:101AD000DDF81880104801884046FFF7A7FB3B4619
:101AE000324629462046FFF7BBFDBDE8F0812DE9CF
:101AF000F04104460D4616461F46DDF81880414663
:101B000006480088FFF792FB3B46324629462046AE
:101B1000FFF728FEBDE8F0814E0000204C000020B9
:101B200008B50121042000F079FA0121102000F00D
:101B300075FA0120ADF8000003208DF80200102096
:101B40008DF803006946094800F02CFB40F6FF7051
:101B5000ADF8000003208DF8020048208DF8030046
:101B60006946034800F01EFB08BD00000008014064
:101B70000010014070B505460C460121022000F01E
:101B80005AFA31488580048000202F49C880488057
:101B90002E4800F029FD70BD08B54FF4A06000F09C
:101BA00061F81D208DF8000001208DF801008DF8EE
:101BB00002008DF80300684600F059F80122114632
:101BC000224801F088F80121204801F069F808BD99
:101BD00070B504460D4629462046FFF7CBFFFFF7B8
:101BE000DBFF70BD10B50121184801F022FB50B396
:101BF0000121164801F02EFB012015490860154807
:101C000080681549154A128821F8120001201049F0
:101C1000091F086011480088401C104908800846C8
:101C20000088B0F5917F0ED101200D490870002089
:101C30000A49088000220121044801F04CF80021E3
:101C4000024801F02DF810BD0005002000040040FE
:101C500014080140001001407C00002050000020CA
:101C60000000002031490143314A1160704770B5CE
:101C7000002100230F22C47804B32D4C246804F4FF
:101C8000E064C4F5E064210AC1F10403CA40447869
:101C900004FA03F18478144021430901254C0678A5
:101CA000A155047804F01F050124AC4005786D119E
:101CB000AD0005F1E025C5F8004109E0047804F025
:101CC0001F050124AC401C4D0678761145F82640CE
:101CD00070BD1A4A0A400243154B1B1F1A60704719
:101CE00039B1134A121D12680243114B1B1D1A60B1
:101CF00006E00F4A121D126882430D4B1B1D1A602D
:101D00007047042808D14FF0E021096941F004012F
:101D10004FF0E022116107E04FF0E021096921F066
:101D200004014FF0E0221161704700000000FA0545
:101D30000CED00E000E400E080E100E080FFFF1F28
:101D4000DF48006840F00100DD490860084640684F
:101D5000DC490840DA49486008460068DA4908402A
:101D6000D74908600846006820F4802008600846CB
:101D7000406820F4FE0048604FF41F008860704700
:101D8000CF49096821F48031CD4A116011460968B4
:101D900021F480211160B0F5803F03D0B0F5802F91
:101DA0000ED106E0C649096841F48031C44A116089
:101DB00007E0C349096841F4A021C14A116000E06D
:101DC00000BF00BF704710B501460022002300206D
:101DD0004A11012A02D1BA4C236806E0022A02D134
:101DE000B74C236A01E0B64C636A01F01F0201247C
:101DF00094401C400CB1012000E0002010BD38B51B
:101E0000002000900024002500BF3120FFF7DBFFF9
:101E100005460098401C00900098B0F5A06F01D0D6
:101E2000002DF2D03120FFF7CEFF08B1012400E0F1
:101E30000024204638BD01460020A14A106820F049
:101E4000F80040EAC10010607047A0490860704780
:101E5000024600209A4B586820F47C1042EA0103A5
:101E60001843974B58607047984908667047014679
:101E70000020934A506820F00300084350607047E8
:101E80008F48406800F00C007047014600208C4AE3
:101E9000506820F0F0000843506070470146002071
:101EA000874A506820F4E06008435060704701465C
:101EB0000020834A506820F4605040EAC10050601E
:101EC000704729B17E4A527A02437D4B5A7204E030
:101ED0007B4A527A82437A4B5A7270477B49D83197
:101EE0000860704701460020754A506820F4404061
:101EF0000843506070470021714A20321170704AC7
:101F000082F82010012802D004280AD104E001211F
:101F10006B4A2032117005E00521694A20321170A8
:101F200000E000BF00BF704769490860704764491E
:101F3000096A0143624A1162704765494439086081
:101F4000704730B500210022002400235C4D6D68ED
:101F500005F00C0121B1042905D0082923D105E0A1
:101F60005C4D056022E05B4D05601FE0544D6D68DF
:101F700005F47012524D6D6805F48034022505EBAE
:101F800092421CB9544D554305600BE04C4D6D68B1
:101F900005F400351DB1504D5543056002E04D4D2F
:101FA0005543056002E04B4D056000BF00BF444D46
:101FB0006D6805F0F0010909484D6B5C0568DD406E
:101FC00045603F4D6D6805F4E061090A434D6B5C67
:101FD0004568DD4085603A4D6D6805F46051C90A79
:101FE0003E4D6B5C4568DD40C560354D6D6805F460
:101FF0004041890B3A4D6B5CC568B5FBF3F5056153
:1020000030BD29B12E4A526902432D4B5A6104E07A
:102010002B4A526982432A4B5A61704729B1284A98
:1020200092690243264B9A6104E0254A92698243F1
:10203000234B9A61704729B1214AD2690243204B50
:10204000DA6104E01E4AD26982431D4BDA617047AF
:1020500029B11B4AD2680243194BDA6004E0184ADE
:10206000D2688243164BDA60704729B1144A12696C
:102070000243134B1A6104E0114A12698243104B68
:102080001A61704712494039086070470F49C864A7
:1020900070470B49C87170470948406A40F080702A
:1020A00007494862704701460020054A92680A4085
:1020B0000AB1012000E00020704701498872704792
:1020C000001002400000FFF8FFFFF6FE0000424251
:1020D0008004424200127A0000093D0052000020B4
:1020E0006200002010B50446CC48844208D101218A
:1020F0000420FFF7ADFF00210420FFF7A9FF46E011
:10210000C748844208D101210820FFF7A1FF002120
:102110000820FFF79DFF3AE0C248844208D1012120
:102120001020FFF795FF00211020FFF791FF2EE010
:10213000BD48844208D101212020FFF789FF0021FA
:102140002020FFF785FF22E0B848844208D1012112
:102150004020FFF77DFF00214020FFF779FF16E0C8
:10216000B348844208D101218020FFF771FF00218C
:102170008020FFF76DFF0AE0AE48844207D10121BD
:102180008015FFF765FF0021A015FFF761FF10BD67
:1021900010B501210846FFF75BFF00210120FFF782
:1021A00057FF10BD2DE9F041024600250026002012
:1021B00000230024002791F803C00CF00F0591F8CC
:1021C00003C00CF0100CBCF1000F03D091F802C05A
:1021D0004CEA050591F800C0BCF1000F31D014683D
:1021E00000202BE04FF0010C0CFA00F3B1F800C016
:1021F0000CEA03069E4220D183004FF00F0C0CFA2C
:1022000003F7BC4305FA03FC4CEA040491F803C04D
:10221000BCF1280F06D14FF0010C0CFA00FCC2F8FB
:1022200014C00AE091F803C0BCF1480F05D14FF08B
:10223000010C0CFA00FCC2F810C0401C0828D1D3D5
:102240001460B1F800C0BCF1FF0F34DD5468002009
:102250002EE000F1080C4FF0010808FA0CF3B1F879
:1022600000C00CEA03069E4221D183004FF00F0C00
:102270000CFA03F7BC4305FA03FC4CEA040491F89A
:1022800003C0BCF1280F05D100F1080C08FA0CF8C6
:10229000C2F8148091F803C0BCF1480F07D100F1D7
:1022A000080C4FF0010808FA0CF8C2F81080401C26
:1022B0000828CED35460BDE8F0814FF6FF7101804D
:1022C000022181700421C17070470246002093688A
:1022D0000B400BB1012000E00020704701468868E8
:1022E00080B2704702460020D3680B400BB101203A
:1022F00000E0002070470146C86880B27047016165
:102300007047416170470AB1016100E04161704767
:10231000C16070474FF480320A43826181618261FB
:1023200082698269704702460020434B18684FF665
:102330008073184040EA021008433F4B1860704712
:102340003E49C8617047F0B50A46002300240021C9
:10235000002500F00046B6F1004F02D1364EF1697B
:1023600001E0354E7168C0F3034583B200F44016B6
:10237000B6F5401F08D121F070612F4E766826F027
:1023800070662D4F7E6012E000F48016B6F5801F57
:1023900006D1032606FA05F4A14341F0706106E078
:1023A000460D360103FA06F6B14341F0706122B1E1
:1023B000460D360103FA06F6314300F00046B6F149
:1023C000004F02D11C4EF16101E01B4E7160F0BD67
:1023D00030B500228B071C0F0F2303FA04F2164BB3
:1023E00008338C1053F824309343134C08348D1069
:1023F00044F8253023468C1053F824308C07240FE2
:1024000000FA04F423430C4C08348D1044F82530B2
:1024100030BD0A49DC310860704700000008014007
:10242000000C014000100140001401400018014060
:10243000001C01400020014000000140000020423B
:1024400010B50446FE48844208D10121C014FFF7AC
:10245000FFFD0021E014FFF7FBFDC4E0B4F1804F65
:1024600008D101210846FFF700FE00210120FFF7F7
:10247000FCFDB8E0F348844208D101210220FFF7B7
:10248000F4FD00210220FFF7F0FDACE0EE488442AD
:1024900008D101210420FFF7E8FD00210420FFF707
:1024A000E4FDA0E0E948844208D101210820FFF7BB
:1024B000DCFD00210820FFF7D8FD94E0E4488442C9
:1024C00008D101211020FFF7D0FD00211020FFF7D7
:1024D000CCFD88E0DF48844208D101212020FFF7AD
:1024E000C4FD00212020FFF7C0FD7CE0DA488442D3
:1024F00008D101214014FFF7ABFD00216014FFF764
:10250000A7FD70E0D548844209D10121C804FFF736
:102510009FFD00214FF40020FFF79AFD63E0D048B3
:10252000844209D101210805FFF792FD00214FF4F3
:102530008010FFF78DFD56E0CA48844209D1012181
:102540004805FFF785FD00214FF40010FFF780FDDF
:1025500049E0C548844208D101214020FFF785FDAC
:1025600000214020FFF781FD3DE0C048844208D1B2
:1025700001218020FFF779FD00218020FFF775FD04
:1025800031E0BB48844208D101218015FFF76DFD81
:102590000021A015FFF769FD25E0B648844209D166
:1025A00001210804FFF754FD00214FF48030FFF7AC
:1025B0004FFD18E0B048844209D101214804FFF7DB
:1025C00047FD00214FF40030FFF742FD0BE0AB4820
:1025D000844208D101218804FFF73AFD00214FF41D
:1025E0008020FFF735FD10BD00220288944B9842F1
:1025F0000ED0994B98420BD0B0F1804F08D0914B40
:10260000984205D0904B984202D0904B984204D10A
:102610004FF68F731A404B881A438D4B984207D060
:102620008C4B984204D04FF6FF431A40CB881A4394
:1026300002808B8883850B880385814B98420BD061
:10264000854B984208D08B4B984205D08A4B9842D4
:1026500002D08A4B984201D10B7A038601238382F0
:10266000704770B5002400220023058C4FF6FE76DB
:1026700035400584028C8388048B4FF68F752C407F
:10268000B51E2C400D882C43751E2A400D892A4307
:102690004D882A436A4DA8420BD06F4DA84208D0FE
:1026A000744DA84205D0744DA84202D0734DA84283
:1026B00013D14FF6F7752A404D892A434FF6FB7523
:1026C0002A408D882A434FF6FF652B404FF6FF5571
:1026D0002B408D892B43CD892B4383800483CD8868
:1026E0008586028470BD70B5002400220023058C0D
:1026F0004FF6EF7635400584028C8388048B48F6CC
:10270000FF752C404FF6FF452C400D884FF6FF76A5
:1027100006EA05252C434FF6DF752A400D8906EAA7
:1027200005152A434D8806EA05152A43444DA8425B
:1027300002D0494DA8421DD14FF67F752A404D89E0
:102740004FF6FF7606EA05152A434FF6BF752A4075
:102750008D8806EA05152A434FF6FF352B404FF2C8
:10276000FF752B408D8906EA85052B43CD8906EA46
:1027700085052B4383800483CD880587028470BD43
:1027800070B5002400220023058C4FF6FF6635400B
:102790000584028C8388848B4FF68F752C404FF60E
:1027A000FC752C400D882C434FF6FF552A400D89AF
:1027B0004FF6FF7606EA05252A434D8806EA0525E9
:1027C0002A431F4DA84202D0234DA8421DD14FF2EB
:1027D000FF752A404D894FF6FF7606EA05252A4304
:1027E0004FF6FF352A408D8806EA05252A434EF626
:1027F000FF752B404DF6FF752B408D8906EA0515B8
:102800002B43CD8906EA05152B4383808483CD882D
:102810008587028470BD70B5002200230024058CDA
:102820004EF6FF7635400584038C8488828B48F60B
:10283000FF752A404FF6FF452A400D8820E0000032
:10284000002C01400004004000080040000C004043
:10285000001000400014004000340140004C0140D2
:10286000005001400054014000180040001C00408E
:102870000020004000400140004401400048014069
:102880004FF6FF7606EA05252A434DF6FF752B40E5
:102890000D8906EA05352B434D8806EA05352B439D
:1028A000FA4DA84202D0FA4DA84208D14BF6FF7566
:1028B0002C408D894FF6FF7606EA85152C438480DF
:1028C0008283CD88A0F84050038470BD828B4FF284
:1028D000FF331A408283828B4FF6FF7303EA012392
:1028E0001A4382837047F0B50C461546002200213A
:1028F0000026078C4EF6FF7C07EA0C070784828BC4
:10290000018C4FF6FF7707EA043640F6FF473A405E
:102910004FF6FF7707EA05273A434FF6FF7707EAB6
:1029200003373A43D94FB8420ED0D94FB8420BD0F3
:10293000B0F1804F08D0D74FB84205D0D64FB8423B
:1029400002D0D64FB84206D14DF6FF77394046F453
:102950008057394305E047F6FF57394044F4805724
:10296000394382830184F0BD828B4FF6F3731A40A2
:102970008283828B0A4382837047F0B50C461546EA
:10298000002200210026078C4FF6FF6C07EA0C0797
:102990000784828B018C4FF6FF7707EA04264FF6F7
:1029A0000C773A404FF6FF7707EA03172F433A4375
:1029B000B64FB8420ED0B64FB8420BD0B0F1804FF0
:1029C00008D0B44FB84205D0B34FB84202D0B34F8D
:1029D000B84206D14FF6FF57394046F48077394365
:1029E00005E04FF2FF57394044F480773943828342
:1029F0000184F0BD028B4FF2FF331A400283028B39
:102A00004FF6FF7303EA01231A4302837047F0B5C0
:102A10000C461546002200210026078C4FF6EF7C5D
:102A200007EA0C070784028B018C4FF6FF7707EA51
:102A3000041640F6FF473A404FF6FF7707EA0337A0
:102A40003A434FF6FF7707EA05273A438F4FB842DC
:102A50000ED08F4FB8420BD0B0F1804F08D08D4FC1
:102A6000B84205D08C4FB84202D08C4FB84206D144
:102A70004FF6DF77394046F01007394305E04FF64F
:102A80005F77394044F01007394302830184F0BD79
:102A9000028B4FF6F3731A400283028B0A430283C0
:102AA0007047F0B50C46154600220021068C4FF603
:102AB000FE773E400684028B018C4FF60C76324046
:102AC0007E1C06EA03162E433243704EB0420ED0EF
:102AD0006F4EB0420BD0B0F1804F08D06D4EB04277
:102AE00005D06D4EB04202D06C4EB04206D14FF6CA
:102AF000FD76314044F00106314305E04FF6F576AE
:102B0000314044F00106314302830184F0BD70B5C9
:102B100005460C465D4885420ED05D4885420BD087
:102B2000B5F1804F08D05B48854205D05A488542B0
:102B300002D05A48854200D100E000BF208850B939
:102B40002389A28861882846FFF7ABFFE1882846E1
:102B5000FFF79EFF25E0208804280AD12389A28858
:102B600061882846FFF753FFE1882846FFF742FFB8
:102B700017E0208808280AD12389A288618828467E
:102B8000FFF7FBFEE1882846FFF7EEFE09E0238908
:102B9000A28861882846FFF7A6FEE1882846FFF74D
:102BA00095FE70BD2DE9F04105460C460026012733
:102BB000608808B9022600E00026A088012801D11B
:102BC000022700E001272088A0B92389A288618814
:102BD0002846FFF766FFE1882846FFF759FF23895B
:102BE0003A4631462846FFF712FFE1882846FFF7AC
:102BF00001FF13E02389A28861882846FFF707FFB9
:102C0000E1882846FFF7F6FE23893A4631462846F2
:102C1000FFF747FFE1882846FFF73AFFBDE8F0815C
:102C20000A884B881A438B881A43CB881A430B892E
:102C30001A434B891A438B891A43A0F844207047E2
:102C40004FF6FF71818000210180C18041800172B7
:102C500070470021018041808180C18001814181D4
:102C60008181C181704700210180418001218180E3
:102C70000021C18001817047002101804180818055
:102C8000C18001814181818170470000002C014099
:102C9000003401400004004000080040000C0040E7
:102CA00021B1028842F00102028004E002884FF65E
:102CB000FE731A400280704731B1B0F8442042F4EC
:102CC0000042A0F8442005E0B0F84420C2F30E0210
:102CD000A0F8442070471AB183890B43838102E036
:102CE00083898B43838170478182704741EA020365
:102CF000A0F8483070471AB183890B43838102E002
:102D000083898B438381704701894FF6F8721140A4
:102D1000018170470A46002101894FF68F731940DF
:102D200011430181704730B504460D4629462046BF
:102D3000FFF7F0FF208940F00700208130BD2DE92A
:102D4000F04104460D4616461F46602D06D13B460F
:102D5000012231462046FFF75AFE05E03B4601229C
:102D600031462046FFF79DFE29462046FFF7D2FF59
:102D7000208940F007002081BDE8F08130B50C4685
:102D800000210189C9B24FF6FF7505EA03251543F5
:102D900025432943018130BD2DE9F04105460E460A
:102DA00017469846002443463A4631462846FFF7E0
:102DB000E5FF2C894FF6F870044044F007044FF605
:102DC0008F70044044F070042C81BDE8F081F0B5B0
:102DD00004460D4616461F463B46324629462046C7
:102DE000FFF7CCFF208940F480402081F0BD0185B1
:102DF000828270470A46002101884FF68F7319407E
:102E0000114301807047F0B50C4615461E4600215F
:102E1000002200230189028B038C4FF6F87739409A
:102E200021434FF6FC473A4040F201173A434FF630
:102E3000DD773B404FF6FF7707EA06172F433B430A
:102E4000018102830384F0BD0A460021018B4FF605
:102E50008F7319401143018370470A460021018B8B
:102E600048F6FF7319404FF6FF7303EA0223194334
:102E7000018370470A460021818B4FF68F731940FA
:102E80001143818370470A460021818B48F6FF7306
:102E900019404FF6FF7303EA0223194381837047F9
:102EA00021B1028842F08002028004E002884FF6DD
:102EB0007F731A400280704721B1828842F0040279
:102EC000828004E082884FF6FB731A40828070474C
:102ED00021B1828842F00802828004E082884FF6A5
:102EE000F7731A408280704721B1828842F0010254
:102EF000828004E082884FF6FE731A408280704719
:102F00000A460021018B4FF6F773194011430183E4
:102F100070470A460021018B4FF2FF7319404FF6AC
:102F2000FF7303EA02231943018370470A46002115
:102F3000818B4FF6F77319401143818370470A461E
:102F40000021818B4FF2FF7319404FF6FF7303EAA4
:102F500002231943818370470A460021018B4FF6F3
:102F6000FB7319401143018370470A460021018B0E
:102F70004FF6FF3319404FF6FF7303EA022319435C
:102F8000018370470A460021818B4FF6FB7319407D
:102F90001143818370470A460021818B4FF6FF332E
:102FA00019404FF6FF7303EA0223194381837047E8
:102FB0000A460021018B4FF67F73194011430183AC
:102FC00070470A460021018BC1F30E014FF6FF73D3
:102FD00003EA02231943018370470A460021818BCB
:102FE0004FF67F7319401143818370470A460021D1
:102FF000818BC1F30E014FF6FF7303EA02231943DD
:10300000818370470A460021018C4FF6FD731940F9
:103010001143018470470A460021018C4FF6F77373
:1030200019401143018470470A460021018C4FF674
:10303000DF7319404FF6FF7303EA0213194301844B
:1030400070470A460021018C4FF67F7319404FF6F6
:10305000FF7303EA02131943018470470A460021F3
:10306000018C4FF6FF5319404FF6FF7303EA02231A
:103070001943018470470A460021018C4FF2FF7307
:1030800019404FF6FF7303EA022319430184704786
:103090000A460021018C4DF6FF7319404FF6FF736D
:1030A00003EA023319430184704730B50023012439
:1030B0008C40A3B2048C9C430484048C02FA01F576
:1030C000ADB22C43048430BD30B5002304248C40C1
:1030D000A3B2048C9C430484048C02FA01F5ADB2C3
:1030E0002C43048430BD70B50346002000241846EC
:1030F000183001258D40ACB21D8CA5431D8409B14B
:10310000082909D100EB6100056825F0700505600C
:103110000568154305600EE00D1FC5F34E052844F4
:10312000056825F4E045056005684FF6FF7606EA78
:1031300002263543056070BD21B1028842F00202CB
:10314000028004E002884FF6FD731A400280704747
:1031500021B1028842F00402028004E002884FF6A6
:10316000FB731A400280704721B1828842F08002CE
:10317000828004E082884FF67F731A408280704715
:1031800002884FF6F7731A40028002880A430280D1
:10319000704782884FF68F731A40828082880A4374
:1031A0008280704702894FF6F8731A4002810289C3
:1031B0000A430281704702894FF67F731A400281E9
:1031C00002890A4302817047818470478185704774
:1031D000818670470187704781877047A0F840104B
:1031E000704702884FF6FF431A40028002880A4364
:1031F000028070470146888E70470146088F7047ED
:103200000146888F70470146B1F84000704701467B
:10321000888C70470146088D704702460020138A4B
:103220000B400BB1012000E000207047CA4302822E
:10323000704730B50246002000230024158A05EAB5
:103240000103958905EA010413B10CB1012000E0E6
:10325000002030BDCA4302827047000030B943F2FB
:10326000DB028100A1F1C0410A6005E043F2D20215
:103270008100A1F1C0410A606FF07042411C8900D9
:10328000A1F1C0410A608100A1F1C041C1F804214F
:10329000704710280AD118214FF0204211664021B2
:1032A00051664FF0FC319166D16610E01821F74A63
:1032B000116040214FF02042C2F884104FF0FC31E1
:1032C000F24A083211604FF02042C2F88C10704769
:1032D0001820EE492031086000200906C1F8A4003A
:1032E0004FF0FC30E94928310860091D0860091DCC
:1032F00008607047D0E901121143C26811430269A6
:1033000011434269114382691143C2691143026A40
:103310001143426A1143826A1143C26A1143026B2C
:10332000114302689200A2F1C0421160816808292D
:103330000BD101688900A1F1C041096841F0400248
:1033400001688900A1F1C0410A60416B0968426BC4
:10335000526841EA0211426B926841EA0221426BD3
:10336000928941EA0241426B128A41EA0251426B60
:10337000127D41EA0261426B926911430268521C5C
:103380009200A2F1C0421160C16AB1F5804F1BD119
:10339000816B0968826B526841EA0211826B926804
:1033A00041EA0221826B128A41EA0251826B127D4C
:1033B00041EA0261826B9269114302689200A2F1B4
:1033C000C042C2F8041107E06FF070420168890042
:1033D000A1F1C041C1F80421704730B5002100229D
:1033E0000023446844F0080485682C43C5682C43D6
:1033F00005692C43456944EA4524856944EA453119
:10340000C4692468C5696D6844EA0524C5692D89C5
:1034100044EA0544C5692D7B44EA0562046A2468D0
:10342000056A6D6844EA0524056A2D8944EA054465
:10343000056A2D7B44EA05630468102C05D14FF022
:1034400020442166A266E36608E0904C21604FF0BC
:103450002044C4F888208D4C0C34236030BD0168B2
:1034600041F01001426841EA4221826841EA42315A
:10347000864A20321160C1680968C268526841EA10
:103480000221C268128941EA0241C268127B41EA04
:1034900002617E4A28321160016909680269526836
:1034A00041EA02210269128941EA02410269127B62
:1034B00041EA0261754A2C3211604169096842692A
:1034C000526841EA02214269128941EA0241426995
:1034D000127B41EA02614FF02042C2F8B0107047FF
:1034E000002101600221416000218160C160016111
:1034F00041618161C16101624FF4805141624900C3
:1035000081620021C16201630F21426B1160426B35
:103510005160FF21426B91600F21426BD160426B81
:103520001161426B51610021426B91610F21826BED
:103530001160826B5160FF21826B91600F21826B61
:10354000D160826B1161826B51610021826B91614C
:10355000704710210160002141608160C1600161FC
:1035600041618161FC21C2691160C2695160C26917
:103570009160C269D160026A1160026A5160026A98
:103580009160026AD16070470021016041608160F2
:10359000FC21C2681160C2685160C2689160C26853
:1035A000D16002691160026951600269916002692B
:1035B000D16042691160426951604269916042691B
:1035C000D160704751B18200A2F1C042126842F04E
:1035D00001038200A2F1C042136009E08200A2F15F
:1035E000C04212682A4B1A408300A3F1C0431A60FC
:1035F000704799B1102808D14FF02042126E42F066
:1036000004024FF020431A661DE0204A126842F07F
:1036100004024FF02043C3F8802014E0102809D1A1
:103620004FF02042126E1A4BDB1E1A404FF020431F
:103630001A6608E0154A1268154BDB1E1A404FF057
:103640002043C3F88020704748B1104920310968F1
:1036500041F004014FF02042C2F8A01009E00B49EC
:10366000203109680A4AD21E11404FF02042C2F8A8
:10367000A0107047B9B110280CD14FF02042126E43
:1036800042F040024FF020431A661FE0800000A085
:10369000FEFF0F00724A126842F040024FF02043D2
:1036A000C3F8802012E0102808D14FF02042126E9B
:1036B0006C4B1A404FF020431A6607E0684A1268C4
:1036C000684B1A404FF02043C3F8802070470146F2
:1036D0000020102903D14FF02042506F02E0604AD1
:1036E00014321068704710B5F2B1102807D14FF0AE
:1036F00020435B6E0B434FF02044636632E0B0F52D
:10370000807F08D1564B1B1D1B680B434FF0204494
:10371000C4F8843026E0524B24331B680B434FF02F
:103720002044C4F8A4301DE0102807D14FF02043F6
:103730005B6E8B434FF02044636613E0B0F5807FEF
:1037400008D1474B1B1D1B688B434FF02044C4F826
:10375000843007E0424B24331B688B434FF02044F6
:10376000C4F8A43010BD10B5024600200023102A72
:1037700003D14FF02044636E09E0B2F5807F03D19E
:10378000374C241D236802E0354C2434236803EAB7
:1037900001040CB1012000E0002010BD102807D169
:1037A0004FF02042526E8A434FF020435A6613E096
:1037B000B0F5807F08D12A4A121D12688A434FF063
:1037C0002043C3F8842007E0254A243212688A4344
:1037D0004FF02043C3F8A420704770B50246002084
:1037E000002300240025102A03D14FF02046736ED9
:1037F00009E0B2F5807F03D1194E361D336802E02F
:10380000174E2436336803EA010403EAD10514B1E4
:103810000DB1012000E0002070BD102808D14FF04C
:103820002042526E22EAD1024FF020435A6615E040
:10383000B0F5807F09D10A4A121D126822EAD1022E
:103840004FF02043C3F8842008E0054A2432126870
:1038500022EAD1024FF02043C3F8A42070470000B1
:10386000800000A0BFFF0F000CB500200190009069
:103870006C48006840F480306A49086000BF6948BD
:10388000006800F4003000900198401C01900098FE
:1038900018B90198B0F5A06FF1D16248006800F442
:1038A000003010B10120009001E00020009000984D
:1038B000012843D15C48006840F010005A49086074
:1038C0000846006820F0030008600846006840F0E1
:1038D0000200086053484068524948600846406802
:1038E00048600846406840F4806048600846406888
:1038F00020F47C1048600846406840F4E8104860B6
:103900000846006840F08070086000BF45480068C5
:1039100000F000700028F9D04248406820F0030011
:10392000404948600846406840F00200486000BFD7
:103930003C48406800F00C000828F9D10CBD10B5D7
:10394000FFF792FF10BD10B53648006840F0010047
:1039500034490860084640683449084031494860A5
:1039600008460068324908402E4908600846006849
:1039700020F4802008600846406820F4FE0048607B
:103980004FF41F008860FFF7DAFF4FF0006029490D
:10399000086010BD10B5002100200022214B5B689B
:1039A00003F00C0121B1042906D0082928D107E031
:1039B000214B224C236027E01F4B204C236023E047
:1039C000184B5B6803F47010164B5B6803F480328D
:1039D000022303EB904022B9194B4343174C236059
:1039E0000DE0104B5B6803F4003323B1144B4343E9
:1039F000124C236003E0104B4343104C236003E060
:103A00000D4B0E4C236000BF00BF064B5B68C3F339
:103A100003130C4CE15C094B1B68CB40074C236043
:103A200010BD000000100240002002400000FFF81E
:103A3000FFFFF6FE08ED00E000127A0068000020AB
:103A400000093D006C0000200948804709480047F4
:103A5000FEE7FEE7FEE7FEE7FEE7FEE7FEE7FEE73E
:103A6000FEE7FEE704480549054A064B704700009B
:103A7000473900083101000870050020700B002054
:103A800070070020700700200FB41CB5074B06AA72
:103A90007B4469460090059800F035FA002069469D
:103AA00000F044FA1CBC5DF814FB0000990400000F
:103AB00070B5044685690068C10601D5302600E06E
:103AC0002026C00707D070BDD4E9012130469047B9
:103AD000206A401C20626D1EF6D570BD70B504468C
:103AE00085690078C00707D170BDD4E90121202085
:103AF0009047206A401C20626D1EF6D570BD000004
:103B00002DE9F0410646002410687529314616A5B6
:103B100010D0AFF30080002802DA404213A507E07E
:103B200031688A0701D512A502E0490704D511A51D
:103B3000012401E0AFF3008000210A2206F12407EE
:103B400009E0B0FBF2FCB0FBF2F302FB1C003030EA
:103B500078541846491C0028F3D123462A4630469B
:103B6000BDE8F04100F070B9000000002D00000039
:103B70002B000000200000002DE9F0418046D21DFE
:103B800022F007020025D2E90002F52915A614D07B
:103B9000011E72F1000106DA0023D0EB030063EB93
:103BA000020211A608E0D8F800108B0701D50FA675
:103BB00002E0490701D50EA601251146002408F1AF
:103BC000240704E000F0FBF830323A55641C50EA58
:103BD0000102F7D12B46324621464046BDE8F0416E
:103BE00000F032B9000000002D0000002B000000A2
:103BF000200000002DE9F0474FF0000A89460446F6
:103C0000C0F820A02046E1688847002876D0252803
:103C100006D0D4E901219047206A401C2062F1E7D8
:103C2000E168204600268847C4F81CA00546002706
:103C3000C4F818A02A2D09D0284600F0B6F938B3E8
:103C400004EB8708303DC8F8185019E059F8041BF8
:103C5000204604EB87029161E1688847012F054601
:103C600018D1E069002820DA26F020061DE0D8F8F7
:103C7000180000EB800005EB40003038C8F8180051
:103C80002046E1688847054600F08FF90028EED10C
:103C9000012F0AD02E2D08D12046E16888477F1CCD
:103CA0000546022F46F02006C4DBA069002803DA8F
:103CB000404246F00106A061F00701D026F0100650
:103CC0006C2D0AD0682D08D04C2D39D06A2D35D0F6
:103CD000742D35D07A2D33D016E0E1682F4620467A
:103CE0008847B84205460AD16C2F27D04FF4806030
:103CF000E168064320468847054605E027E06C2F2B
:103D00001AD04FF4807006430DB3A5F14100192875
:103D100002D8203546F400664A46294620462660E9
:103D20004E46FCF73FFA80B101280BD0F61D26F075
:103D3000070000F1080965E74020E4E78020D7E7A5
:103D40000020D5E706F104095CE7284661E7206A10
:103D5000BDE8F08710B5203AC0F00B80B1E81850EC
:103D6000203AA0E81850B1E81850A0E81850BFF465
:103D7000F5AF5FEA027C24BFB1E81850A0E8185004
:103D800044BF18C918C0BDE810405FEA827C24BF58
:103D900051F8043B40F8043B08BF7047D20728BFE6
:103DA00031F8023B48BF11F8012B28BF20F8023B35
:103DB00048BF00F8012B704770477047704730B517
:103DC000B0F10A024FEA900E71F100034EEA817ED3
:103DD000B0EB0E0061EB91014FEA101E4EEA017E3E
:103DE00010EB0E0041EB11114FEA102E4EEA016E5E
:103DF00010EB0E0041EB11214FEA104E4EEA014E3E
:103E000010EB0E0041EB1141401841F100014FEA67
:103E1000D00040EA41704FEAD10110EB80054FEA33
:103E2000810444EA907444EB01046D1944EB0404EA
:103E3000521BA3414FF0000348BF0A3200D530BDEA
:103E4000401C41F1000130BD2DE9F0470D46994677
:103E50009246044600F124080168880604D5E0690A
:103E600021F01001216000E00120A84201DD471B84
:103E700000E00027A1697A1902EB0900081AA06185
:103E80002078C00602D42046FFF712FE002608E084
:103E9000D4E901211AF806009047206A401C761CDC
:103EA00020624E45F4DB2078C0060AD52046FFF795
:103EB000FFFD06E0D4E9012130209047206A401C34
:103EC0002062381EA7F10107F4DC07E0D4E90121E4
:103ED00018F805009047206A401C2062281EA5F1B2
:103EE0000105F3DC2046FFF7F9FD2078000602D536
:103EF0000220BDE8F0870120FBE7000001694A1CB1
:103F000002610878704700B58FB0CDE9013100211A
:103F1000059105497944CDE9031011466846FFF73C
:103F200069FE0FB000BD0000E5FFFFFF0A6802F860
:103F3000010B0A607047754600F02CF8AE4605008C
:103F40006946534620F00700854618B020B5FFF7B4
:103F500089FDBDE820404FF000064FF000074FF00C
:103F600000084FF0000B21F00701AC46ACE8C00997
:103F7000ACE8C009ACE8C009ACE8C0098D467047A0
:103F800010B50446AFF300802046BDE81040FCF7B2
:103F900023B90000004870470C0500200149182093
:103FA000ABBEFEE726000200704730380A2801D277
:103FB00001207047002070472DE9C04130B4DFF880
:103FC000A0C23CEA111418BF3CEA131400F0EC80C4
:103FD00081EA03051CEA111444EAD57418BF1CEAEF
:103FE000131500F0C780A4EB05044FF0004545EA27
:103FF000C12145EAC32341EA505143EA525304F137
:104000007F74994204F500344FEAC0204FEAC2227F
:1040100008BF904200F09C804FEA13650FF24016F3
:10402000765D4FEA134506FB05F7C7F1807706FB7F
:1040300007F74FEAD737A7FB03687642C8F5803801
:10404000A7FB06CE38BFA8F1010807FB08E64FF032
:10405000000EA6FB028CE6FB03CEDCF1000CCEF1D9
:10406000004E38BFAEF1010EA6FB0C584FF0000712
:104070004FF00005E6FB0E87A1FB08C6A0FB07CEAC
:1040800016EB0E0645F10005E1FB076515F1E04E64
:104090007EBFA4F580345FEA46066D4116F18007C5
:1040A00045F100054FEA17274FEA066647EA05671C
:1040B000A6F1DE46B6F1805F4FEA15251FD93846D6
:1040C00024F0010C05EBC471BCF1FE6F01EB0C1187
:1040D00002D8F0BCBDE8008124425CBF01F5801E1F
:1040E0009EEAC47F02D4F0BCBDE80081244238D4EB
:1040F000F0BCA1F1C041BDE8004100F0EDB94FEACC
:10410000D22242EA43524FEAD323A7FB02864FEA68
:10411000D02040EA415007FB03661EEA0E0F4FEA2B
:10412000D12105FB026658BFA6EB0056B6EB005640
:104130004FEA520E4EEAC37E18EB0E0E56EB530EAC
:10414000BDD518EB02085E417F1C55F10005B6E7AE
:104150004FF480154FF000074FF000064FF00008B5
:10416000ADE7F0BC4FF0000001F1C04101F00041AB
:10417000BDE8008111EA0C1F0CEA131500D00CE019
:1041800013EA0C1F00F025804FF00000F0BC81EA1C
:10419000030101F00041BDE80081F0BCBDE8004131
:1041A00081EA030100F098B9F0BCBDE8004170B5A8
:1041B00000F044F9097EFC3E00F007B881EA0301F3
:1041C0004FF0000001F00041704781EA030100F068
:1041D00083B9F0BCBDE800414FF0000021497047B1
:1041E000FFFDFBF9F7F5F4F2F0EEEDEBE9E8E6E4BC
:1041F000E3E1E0DEDDDBDAD8D7D5D4D3D1D0CFCD43
:10420000CCCBCAC8C7C6C5C4C2C1C0BFBEBDBCBB7B
:10421000BAB9B8B7B6B5B4B3B2B1B0AFAEADACAB76
:10422000AAA9A8A8A7A6A5A4A3A3A2A1A09F9F9E50
:104230009D9C9C9B9A999998979796959594939302
:10424000929191908F8F8E8E8D8C8C8B8B8A898999
:10425000888887878685858484838382828181801C
:104260000000FF070000F87F4FEA1153A3F58063B9
:10427000D3F11E03A8BFD3F1200C08DB4FF000429E
:1042800042EAC12252EA505232FA03F07047094220
:104290000BD4102BC4BF0020704703F5787CBCF111
:1042A000FF3F05D04FF0FF3070474FF000007047E0
:1042B00070B500F0C3F800BF499224800020704719
:1042C000F0E7B0FA80F310FA03F10AD0C3F11D034E
:1042D00003F580634FEA41504FEA035202EBD121CC
:1042E00070474FF000007047DFF848C170B51CEA16
:1042F000111E1EBF1CEA13159EEA0C0F95EA0C0F47
:1043000000F06F8081EA030423EA4C134EEAD47E66
:1043100021EA4C1141F4801143F48013AE44A1FB17
:10432000024CA0FB0365AEF17F7E361955EB0C0500
:10433000A1FB034C4CF10003A0FB021C16EB0C0686
:10434000654153F10003094218BF46F0010613F41A
:10435000007F0BD14FEA03314FEA0530340341EAC5
:10436000155140EA16506FF003020AE04FEAC321EC
:104370004FEAC520F40241EA555140EA56506FF029
:10438000020202EB2E4201EB025585EACE710AD001
:104390005FEA440C18BF24F0004450F1000041F1E2
:1043A000000120EAD47040F2FE7C624500D270BD6C
:1043B000A84214BF4FF080444FF04044002E08BF85
:1043C0000024BEF1806FA8BFA1F1C041BDE87040DC
:1043D00080F282804FF0000001F1C04101F0004105
:1043E00070479EEA0C0F0CEA131518BF95EA0C0FE4
:1043F00006D04FF0000081EA030E0EF0004170BDC0
:1044000000F01CF88900013E00F007B800F009B880
:104410004FEA430C5FEA5C5C08D081EA030100F0DC
:104420005BB84FEA410C5FEA5C5CF6D14FF00000EC
:10443000014970470000FF070000F87F0EF1020EEF
:104440002EF0030E5EF8046B364205D4012A43EBCE
:10445000030515F5001F12D8012841EB010C1CF5CE
:10446000001F0CD80ED14FEAD17C15F5001F0CEBC4
:104470004C0C0CF1020C08BF4CEBD37C04E04FF069
:10448000080C01E04FEAD37C0CEB4C0526FA05F64C
:1044900006F00706B6F1040C06D20EEB860CBDE85A
:1044A00070404CF0010C6047DFE80CF0090B020291
:1044B0004FF000414FF00000A1F5002170BD1946FA
:1044C0001046012851EB010418BFD4F5001484BF35
:1044D000002001F0004170BD0808A0F500114FEA6E
:1044E000310170476018230090D00300A0860100BE
:1044F00050C300001027000088130000E8030000EC
:10450000000000000000000020202020002000000B
:1045100050500000000000002850F850F850A00053
:104520002030603010602000202018601010000043
:10453000003820605078000020202000000000009B
:10454000102020202020100040202020202040008B
:104550002070205000000000002020F820200000E3
:10456000000000001020200000000070000000008B
:1045700000000000002000001020202040408000AB
:1045800020505050502000006020202020F80000D3
:1045900020502020407000002050102010600000AB
:1045A000103050781038000070406010502000002B
:1045B00030406050506000007050102020200000FB
:1045C000205020505020000030505030106000002B
:1045D000000020000020000000001000102000005B
:1045E000001020C0201000000070007000000000CB
:1045F0000040201820400000205010200020000023
:1046000030484858484038006020507088D8000032
:10461000F048704848F000007050404040300000C2
:10462000F048484848F00000F848604048F800006A
:10463000F848604040E000007040405850300000B2
:10464000E848784848E800007020202020700000EA
:104650003810105050200000D850607050D8000022
:10466000E040404048F80000D8D8D8A888D80000DA
:10467000D868685858E8000030484848483000007A
:10468000F048487040E00000304848484830180082
:10469000F048487048E8000070502010507000004A
:1046A000F8A8202020700000D84848484830000072
:1046B000D888485050300000D888A8A8A8500000DA
:1046C000D850202050D80000D888502020700000FA
:1046D000784810204878000030202020202030002A
:1046E00080404020202010006020202020206000FA
:1046F000202050000000000000000000000000F832
:104700002010000000000000000030107078000051
:10471000C040704848F00000000070404070000049
:104720001808384848380000000070704030000019
:1047300010207020207000000000384848380830F1
:10474000C040704848E80000200060202070000051
:104750002000701010101070C040587050D8000029
:1047600060202020207000000000D0A8A8A8000031
:104770000000F04848C80000000030484830000001
:104780000000F048487040E00000384848380818F9
:104790000000782020700000000030201060000031
:1047A0000040F040483000000000D8484838000081
:1047B0000000C848303000000000D8A8A850000011
:1047C00000004830304800000000D85050202060E1
:1047D0000000785028780000102020602020100071
:1047E00020202020202020004020203020204000B9
:1047F0000000002850000000000000000000000041
:104800000000000000101010101000001000000048
:10481000006C48480000000000000000001414284C
:104820007C287C28505000000010384040384870E8
:1048300010100000002050200C7008140800000028
:104840000000001820205448340000000010101010
:1048500010000000000000000008081010101010E8
:104860001008080000202010101010101020200048
:1048700000107C102828000000000000000010102C
:1048800010FE1010100000000000000000000018D2
:104890001030200000000000007C0000000000003C
:1048A0000000000000000030300000000004040898
:1048B0000810102020400000003844444444444480
:1048C0003800000000301010101010107C000000A4
:1048D00000384404081020447C00000000384404E0
:1048E0001804044438000000000C141424447E040E
:1048F0000E000000003C2020380404443800000072
:10490000001C20407844444438000000007C4404EB
:10491000080808101000000000384444384444449B
:104920003800000000384444443C04087000000093
:10493000000000303000003030000000000000189F
:10494000180000183020000000000C10608060107B
:104950000C000000000000007C007C000000000053
:104960000000C02018041820C00000000000182417
:1049700004081000300000003844444C54544C40AB
:10498000443800000030102828287C44EE00000045
:1049900000F8444478444444F8000000003C44409B
:1049A000404040443800000000F04844444444483B
:1049B000F000000000FC445070504044FC00000037
:1049C000007E22283828202070000000003C44404F
:1049D000404E44443800000000EE44447C444444CB
:1049E000EE000000007C1010101010107C00000081
:1049F000003C0808084848483000000000EE4448E1
:104A000050704844E600000000702020202024243C
:104A10007C00000000EE6C6C54544444EE00000036
:104A200000EE64645454544CEC00000000384444DC
:104A300044444444380000000078242424382020D2
:104A4000700000000038444444444444381C0000D2
:104A500000F8444444784844E200000000344C40EC
:104A6000380404645800000000FE9210101010106A
:104A70003800000000EE4444444444443800000040
:104A800000EE4444282828101000000000EE4444A2
:104A9000545454542800000000C6442810102844E0
:104AA000C600000000EE4428281010103800000056
:104AB000007C4408101020447C00000000382020B6
:104AC0002020202020203800004020202010100826
:104AD0000808000000380808080808080808380016
:104AE000001010284400000000000000000000003A
:104AF00000000000000000FE0010080000000000A0
:104B00000000000000000038443C44443E00000027
:104B100000C0405864444444F80000000000003CD9
:104B20004440404438000000000C04344C444444E9
:104B30003E00000000000038447C40403C00000083
:104B4000001C207C202020207C000000000000367B
:104B50004C4444443C04380000C04058644444443D
:104B6000EE00000000100070101010107C0000001B
:104B700000100078080808080808700000C0405CB1
:104B800048705048DC000000003010101010101069
:104B90007C000000000000E854545454FE00000063
:104BA000000000D864444444EE00000000000038D7
:104BB0004444444438000000000000D864444444A5
:104BC0007840E000000000364C4444443C040E00B1
:104BD0000000006C302020207C0000000000003C21
:104BE00044380444780000000000207C202020226B
:104BF0001C000000000000CC4444444C360000007F
:104C0000000000EE4444282810000000000000EEE0
:104C10004454545428000000000000CC4830304870
:104C2000CC000000000000EE44242818101078008A
:104C30000000007C481020447C0000000008101098
:104C4000101020101010080000101010101010107C
:104C5000101000000020101010100810101020007C
:104C600000000000002458000000000000000000C8
:104C70000000000000000000000000000000001024
:104C80001010101010100000181800000012362428
:104C900048000000000000000000000000000024A8
:104CA0002424FE484848FE484848000000001038C8
:104CB0005454503018141454543810100000004448
:104CC000A4A8A8A8541A2A2A2A44000000000030E8
:104CD000484848506EA4948889760000006060209F
:104CE000C0000000000000000000000000020408F6
:104CF00008101010101010080804020000402010C6
:104D000010080808080808101020400000000000E3
:104D10001010D63838D61010000000000000000037
:104D200010101010FE101010100000000000000005
:104D30000000000000000000606020C000000000D3
:104D4000000000007F0000000000000000000000E4
:104D50000000000000000000606000000000010290
:104D60000204040808101020204040000000001831
:104D700024424242424242422418000000000010F5
:104D80007010101010101010107C00000000003C7B
:104D90004242420404081020427E00000000003C11
:104DA0004242041804020242443800000000000499
:104DB0000C14242444447E04041E00000000007EE1
:104DC0004040405864020242443800000000001C89
:104DD0002440405864424242241800000000007EF3
:104DE0004444080810101010101000000000003C8F
:104DF0004242422418244242423C00000000001873
:104E000024424242261A0202243800000000000018
:104E10000000181800000000181800000000000032
:104E20000000001000000000001010200000000230
:104E300004081020402010080402000000000000B8
:104E40000000FE000000FE00000000000000004026
:104E50002010080402040810204000000000003C5C
:104E600042426202040808001818000000000038DE
:104E7000445AAAAAAAAAB44244380000000000106A
:104E800010182828243C444242E70000000000F8A3
:104E9000444444784442424244F800000000003E4A
:104EA000424280808080804244380000000000F848
:104EB000444242424242424244F80000000000FCA8
:104EC000424848784848404242FC0000000000FC4C
:104ED000424848784848404040E000000000003C1C
:104EE00044448080808E844444380000000000E701
:104EF000424242427E42424242E700000000007CC1
:104F00001010101010101010107C00000000003E57
:104F10000808080808080808080888F0000000EEDB
:104F2000444850705048484444EE0000000000E0FF
:104F3000404040404040404042FE0000000000EE43
:104F40006C6C6C6C5454545454D60000000000C770
:104F5000626252524A4A4A4646E200000000003865
:104F6000448282828282828244380000000000FCF7
:104F7000424242427C40404040E000000000003895
:104F8000448282828282B2CA4C380600000000FC51
:104F90004242427C4848444442E300000000003E54
:104FA0004242402018040242427C0000000000FE01
:104FB000921010101010101010380000000000E7C0
:104FC0004242424242424242423C0000000000E76C
:104FD000424244242428281810100000000000D663
:104FE00092929292AAAA6C4444440000000000E706
:104FF000422424181818242442E70000000000EE80
:105000004444282810101010103800000000007EC2
:10501000840408081020204242FC0000001E1010EA
:10502000101010101010101010101E000000404042
:105030002020101010080804040402020078080858
:10504000080808080808080808087800001C22005A
:105050000000000000000000000000000000000050
:105060000000000000000000000000FF0060602061
:10507000C000000000000000000000000000000070
:105080000000003C421E2242423F0000000000C0DF
:105090004040405864424242645800000000000012
:1050A0000000001C22404040221C000000000006BE
:1050B0000202021E22424242261B000000000000A3
:1050C0000000003C427E4040423C00000000000FD7
:1050D0001110107E10101010107C00000000000055
:1050E0000000003E444438403C42423C000000C0C6
:1050F0004040405C6242424242E700000000003013
:105100003000007010101010107C00000000000C27
:105110000C00001C0404040404044478000000C0D3
:105120004040404E4850684844EE00000000007087
:105130001010101010101010107C00000000000063
:10514000000000FE4949494949ED00000000000007
:10515000000000DC6242424242E700000000000022
:105160000000003C42424242423C0000000000007D
:10517000000000D864424242447840E00000000051
:105180000000001E22424242221E020700000000D0
:10519000000000EE3220202020F800000000000077
:1051A0000000003E42403C02427C00000000000043
:1051B0000010107C10101010100C000000000000F7
:1051C000000000C642424242463B00000000000090
:1051D000000000E742242428101000000000000016
:1051E000000000D79292AAAA4444000000000000E8
:1051F0000000006E2418181824760000000000003B
:10520000000000E742242428181010E000000000ED
:105210000000007E44081010227E000000030404F9
:10522000040404080404040404040300080808082F
:10523000080808080808080808080808006010108E
:10524000101010081010101010106000304C4300A7
:10525000000000000000000000000000000000004E
:10526000000000000000000000000000000000003E
:10527000000000000000000000000000000000002E
:1052800000000000000007000700070007000700FB
:1052900007000700020002000000000007000700EE
:1052A00000000000000000000000000000000000FE
:1052B0001CE01CE01CE00840084008400000000022
:1052C00000000000000000000000000000000000DE
:1052D000000000000CC00CC00CC00CC00CC03FF0A3
:1052E0003FF00CC00CC03FF03FF00CC00CC00CC035
:1052F0000CC00CC000000000000000000300030010
:1053000007E00FE0186018001F000FC000E01860F1
:1053100018601FC01F80030003000300000000008E
:105320000000000000001C002200220022001C607F
:1053300001E00F803C0031C002200220022001C0A9
:10534000000000000000000000000000000000005D
:10535000000003E00FE00C000C0006000F301FF00F
:1053600019E018C01FF007B00000000000000000A6
:1053700000000000000000000380038003800100A3
:10538000010001000000000000000000000000001B
:10539000000000000000000000000000000000C04D
:1053A00000C00180018001800300030003000300AE
:1053B0000300030001800180018000C000C00000E4
:1053C0000000000000000C000C00060006000600B3
:1053D00003000300030003000300030006000600AF
:1053E00006000C000C00000000000000000003009C
:1053F000030003001B601FE0078007800FC00CC084
:10540000000000000000000000000000000000009C
:105410000000000000000000000003000300030083
:1054200003003FF03FF0030003000300030000000F
:10543000000000000000000000000000000000006C
:10544000000000000000000000000000000000005C
:1054500000000380030003000600060004000000B3
:10546000000000000000000000000000000000003C
:1054700000003FE03FE000000000000000000000EE
:10548000000000000000000000000000000000001C
:10549000000000000000000000000000000000000C
:1054A0000000038003800380000000000000000073
:1054B000000000000060006000C000C000C001806B
:1054C000018003000300060006000C000C000C0025
:1054D00018001800000000000000000000000F800D
:1054E0001FC018C0306030603060306030603060A5
:1054F000306018C01FC00F800000000000000000D6
:1055000000000000000003001F001F000300030054
:105510000300030003000300030003001FE01FE07B
:1055200000000000000000000000000000000F80EC
:105530001FC038E03060006000C00180030006003A
:105540000C0018003FE03FE00000000000000000F9
:105550000000000000000F803FC030E0006000E06D
:1055600007C007C000E00060006060E07FC03F80CF
:10557000000000000000000000000000000001C06A
:1055800003C003C006C00CC00CC018C030C03FE050
:105590003FE000C003E003E0000000000000000066
:1055A0000000000000001FC01FC0180018001F806E
:1055B0001FC018E000600060006030E03FC01F8046
:1055C000000000000000000000000000000003E0F8
:1055D0000FE01E001800380037803FC038E0306010
:1055E000306018E01FC007800000000000000000CD
:1055F0000000000000003FE03FE03060006000C0BD
:1056000000C000C00180018001800300030003008E
:1056100000000000000000000000000000000F80FB
:105620001FC038E0306038E01FC01FC038E0306075
:10563000306038E01FC00F80000000000000000054
:105640000000000000000F001FC038C03060306054
:1056500038E01FE00F6000E000C003C03F803E0064
:10566000000000000000000000000000000000003A
:1056700000000000000003800380038000000000A1
:105680000000038003800380000000000000000091
:10569000000000000000000000000000000001C049
:1056A00001C001C0000000000000038003000600EC
:1056B00006000400000000000000000000000000E0
:1056C0000000003000F003C007001C0078001C0040
:1056D000070003C000F000300000000000000000E0
:1056E00000000000000000000000000000007FF04B
:1056F0007FF0000000007FF07FF00000000000005D
:105700000000000000000000000000000000000099
:10571000000030003C000F00038000E0007800E053
:1057200003800F003C00300000000000000000007B
:1057300000000000000000000F801FC0186018600B
:10574000006001C0038003000000000007000700A4
:1057500000000000000000000000000000000380C6
:105760000C8008401040104011C0124012401240FE
:1057700011C0100008000840078000000000000071
:1057800000000000000000001F801F80038006C092
:1057900006C00CC00C601FE01FE0303078787878CD
:1057A00000000000000000000000000000000000F9
:1057B0003F803FC01860186018E01FC01FE01870DD
:1057C000183018303FF03FE00000000000000000FB
:1057D000000000000000000007B00FF01C7038301F
:1057E000300030003000300038301C700FE007C04F
:1057F00000000000000000000000000000000000A9
:105800007F807FC030E0307030303030303030302A
:10581000307030E07FC07F8000000000000000009A
:1058200000000000000000003FF03FF0183018308A
:1058300019801F801F801980183018303FF03FF00A
:105840000000000000000000000000000000000058
:105850003FF03FF01830183019801F801F801980EA
:10586000180018003F003F0000000000000000008A
:10587000000000000000000007B01FF0187030307A
:105880003000300031F831F8303018301FF007C0E8
:105890000000000000000000000000000000000008
:1058A0003CF03CF01860186018601FE01FE01860C2
:1058B000186018603CF03CF00000000000000000A0
:1058C00000000000000000001FE01FE003000300D4
:1058D0000300030003000300030003001FE01FE0B8
:1058E00000000000000000000000000000000000B8
:1058F00003F803F800600060006000603060306012
:10590000306030E03FC00F80000000000000000069
:1059100000000000000000003EF83EF818E019808A
:105920001B001F001D8018C018C018603E783E384C
:105930000000000000000000000000000000000067
:105940003F003F000C000C000C000C000C000C3061
:105950000C300C303FF03FF0000000000000000071
:1059600000000000000000007878787838703CF083
:1059700034B037B037B03330333030307CF87CF867
:105980000000000000000000000000000000000017
:1059900039F03DF01C601E601E601B601B6019E04A
:1059A00019E018E03EE03E6000000000000000004A
:1059B000000000000000000007800FC01CE03870ED
:1059C000303030303030303038701CE00FC007805D
:1059D00000000000000000000000000000000000C7
:1059E0003FC03FE018701830183018701FE01FC01B
:1059F000180018003F003F000000000000000000F9
:105A0000000000000000000007800FC01CE038709C
:105A1000303030303030303038701CE00FC007800C
:105A200007B00FF00CE000000000000000000000D4
:105A30003FC03FE01870183018701FE01FC018E01A
:105A4000186018703E383E1800000000000000008A
:105A500000000000000000000FB01FF03870303070
:105A600038001F8007E00070303038703FE037C0EA
:105A70000000000000000000000000000000000026
:105A80003FF03FF033303330333003000300030086
:105A9000030003000FC00FC0000000000000000062
:105AA00000000000000000003CF03CF018601860AE
:105AB000186018601860186018601CE00FC007803C
:105AC00000000000000000000000000000000000D6
:105AD00078F078F03060306018C018C00D800D800C
